:100000000C947200189500001895000018950000D7
:10001000189500001895000018950000189500002C
:10002000189500001895000018950000189500001C
:10003000189500001895000018950000189500000C
:1000400018950000189500001895000018950000FC
:1000500018950000189500001895000018950000EC
:1000600018950000189500001895000018950000DC
:1000700018950000189500001895000018950000CC
:1000800018950000189500001895000018950000BC
:1000900018950000189500001895000018950000AC
:1000A000189500001895000018950000189500009C
:1000B000189500001895000018950000189500008C
:1000C000189500001895000018950000189500007C
:1000D000189500001895000018950000189500006C
:1000E000189500008FEF8DBFC8EDE0EC4E2E81E239
:1000F0008EBFD1E2F1E25F2EA89584B7082E877FEC
:1001000084BF88E199278093600090936000EEEFB0
:10011000FFE1A0E0B2E088278D933197E9F76624EC
:100120000E946D0187E880937A0080E480937C00D0
:1001300070917A00706870937A008098259A6B9A13
:1001400070910101786070930101389A00917C00F0
:10015000007E10917B00177F006010937B0000935E
:100160007C000E943702A1E0B2E08D939C9383E96A
:1001700015E00E946701A8EAB1E2E1E0F2E00E9426
:1001800075020E94490184E190E00E942802A1E0EA
:10019000B2E00D911C910F3451E0150718F011F0E9
:1001A0000C94D4000C940001A1E0B2E00D911C91DC
:1001B000003951E0150781E008F480E08F93A1E059
:1001C000B2E00D911C91023C51E0150781E010F066
:1001D00009F080E09F918923882311F40C94F200A8
:1001E0000C941201A1E0B2E00D911C91003253E099
:1001F000150710F40C94FE000C942D010C94A6002D
:100200000E9458012D9A739870910201777F709324
:1002100002014098ECE9F5E00E945E020E94510163
:100220000C94A6000E9458012D98739A70910201B7
:10023000777F70930201EAEAF5E00E945E020E9475
:100240005101409A84EF91E00E942802409884EF87
:1002500091E00E9428020C94A6000E9458012D985B
:10026000739870910201786070930201409AE8EBF4
:10027000F5E00E945E020E9451018FEB11E00E94A6
:100280006701E6ECF5E00E945E020E9451010C94C9
:10029000A600A8EAB1E28D91882311F096D0FBCF99
:1002A00008950E944E02802D11F08FD0FACF08954C
:1002B00081E095D00FD080E892C08FE7213039F0EF
:1002C0008FEB223021F083E9233009F083ED810F99
:1002D0000C94EF0183E09927BBC08AEF90E00E9465
:1002E00028020F9A0D9A0B9A099A70910101716078
:1002F000709301017091010172607093010170911E
:1003000002017D7F7093020185E090E00E94280247
:10031000709102017E7F7093020117981598139ACD
:10032000119A70910201716070930201EF93FF9333
:10033000ECE8F1E00E941C02FF91EF917091020144
:100340007E7F7093020181D0709102017160709381
:100350000201EF93FF93ECE8F1E00E941C02FF9191
:10036000EF91709102017E7F709302016ED07091C7
:100370000201716070930201EF93FF93ECE8F1E0EA
:100380000E941C02FF91EF91709102017E7F709399
:1003900002015BD0119870910201716070930201AB
:1003A000EF93FF93ECE8F1E00E941C02FF91EF91C4
:1003B000709102017E7F7093020147D088E20FD0D6
:1003C0008EE00DD086E00BD008957091020172602E
:1003D00070930201829509D008D037D008957091AA
:1003E00002017D7F70930201F5CF859510F4119A7B
:1003F00001C01198859510F4139A01C01398859542
:1004000010F4159A01C01598859510F4179A01C03B
:10041000179870910201716070930201EF93FF933E
:10042000ECE8F1E00E941C02FF91EF917091020153
:100430007E7F7093020108953197F1F708956894D3
:1004400062F80895E89462F8089581E090E000C0B1
:10045000EF93FF93EE27E82BE92B31F0E0EAFFE082
:100460003197F1F70197D1F7FF91EF9108957091CE
:100470007A00706470937A0000907A0006FCFCCFDA
:1004800070917A00706470937A0000907A0006FC94
:10049000FCCF80917800909179000895D89531969D
:1004A00028F48F938BB783958BBF8F91002008958D
:1004B0000F9301E00BBF0F91889408950F930027CD
:1004C000F9CF0F9302E0F6CF0F9303E0F3CF000FC5
:1004D000111F221F331F0895009510952095309508
:1004E0000F5F1F4F2F4F3F4F0895019110810EC096
:1004F00001911191219130810BC00191108117FF61
:1005000005C03FEF2FEF04C00081112722273327BA
:1005100037FF03C0E1DF8DE28D93CF93DF93CF925E
:10052000DF92EF92AA24BB24CC24DD24EE2440E207
:10053000CAE0DD2755E093E38881890F87FD9F702E
:1005400083FD907F891B89935A95A9F7C0DFAA1C68
:10055000BB1CCC1CDD1CEE1C4A9551F7E894EFE067
:10056000FF2782910ED0EB30E0F71EF068948A2DC1
:100570000CD088278D93EF90DF90CF90DF91CF91B3
:100580000895982F829501D0892F8F70805D26F075
:10059000803309F4089568948D9308952020204EA7
:1005A0004956454C2042414A4F0020204E4956456D
:1005B0004C204D4544494F002020204E4956454C83
:1005C00020414C544F0020202050454C4947524F69
:0205D000210008
:00000001FF
