:100000000C94340018950000189500001895000015
:10001000189500001895000018950000189500002C
:10002000189500001895000018950000189500001C
:10003000189500001895000018950000189500000C
:1000400018950000189500001895000018950000FC
:1000500018950000189500001895000018950000EC
:1000600018950000189500008FEF8DBFC8EDE0ECEB
:100070004E2E88E08EBFD8E0F8E05F2EA89584B7BA
:10008000082E877F84BF88E1992780936000909332
:100090006000EEEFF7E0A0E0B1E088278D933197A4
:1000A000E9F7662487E880937A0080E480937C00F7
:1000B00070917A00706870937A003898219A229A29
:1000C000239A00917C00007F006000937C000E94D6
:1000D000D700A0E0B1E08C93009100010F3F81E0D8
:1000E00010F009F080E08F93009100010B3A81E05D
:1000F00008F480E09F918923882311F40C948100F7
:10010000299A009100010A3A81E010F009F080E09C
:100110008F9300910001063581E008F480E09F9103
:100120008923882311F40C9496002A9A00910001E7
:10013000053581E010F009F080E08F930091000117
:10014000093181E008F480E09F918923882311F42C
:100150000C94AB002B9A00910001083118F011F0BB
:100160000C94B4000C94BA0089E190E00E94C8009D
:100170000C94610029982A982B980C94610031976F
:10018000F1F70895689462F80895E89462F8089584
:10019000EF93FF93EE27E82BE92B31F0E0EAFFE045
:1001A0003197F1F70197D1F7FF91EF910895709191
:1001B0007A00706470937A0000907A0006FCFCCF9D
:1001C00070917A00706470937A0000907A0006FC57
:0C01D000FCCF8091780090917900089598
:00000001FF
