:100000000C94340018950000189500001895000015
:10001000189500001895000018950000189500002C
:10002000189500001895000018950000189500001C
:10003000189500001895000018950000189500000C
:1000400018950000189500001895000018950000FC
:1000500018950000189500001895000018950000EC
:1000600018950000189500008FEF8DBFC8EDE0ECEB
:100070004E2E88E08EBFD8E0F8E05F2EA89584B7BA
:10008000082E877F84BF88E1992780936000909332
:100090006000EEEFF7E0A0E0B1E088278D933197A4
:1000A000E9F7662438983998259A249A239A229A4F
:1000B00030990C945D000C94640031990C946200AA
:1000C0000C948A000C9458002D9A2C982B982A9AFC
:1000D0008EE190E00E94B9002D982C982B9A2A9AD4
:1000E0008EE190E00E94B9002D982C9A2B9A2A98C4
:1000F0008EE190E00E94B9002D9A2C9A2B982A98B4
:100100008EE190E00E94B9002D9A2C982B982A9AA3
:100110000C9458002D9A2C9A2B982A988EE190E0F6
:100120000E94B9002D982C9A2B982A9A8EE190E083
:100130000E94B9002D982C982B9A2A9A8EE190E073
:100140000E94B9002D9A2C982B9A2A988EE190E063
:100150000E94B9002D9A2C9A2B982A980C9458003A
:100160003197F1F70895689462F80895E89462F879
:100170000895EF93FF93EE27E82BE92B31F0E0EAA7
:10018000FFE03197F1F70197D1F7FF91EF910895D3
:00000001FF
