:100000000C947200189500001895000018950000D7
:10001000189500001895000018950000189500002C
:10002000189500001895000018950000189500001C
:10003000189500001895000018950000189500000C
:1000400018950000189500001895000018950000FC
:1000500018950000189500001895000018950000EC
:1000600018950000189500001895000018950000DC
:1000700018950000189500001895000018950000CC
:1000800018950000189500001895000018950000BC
:1000900018950000189500001895000018950000AC
:1000A000189500001895000018950000189500009C
:1000B000189500001895000018950000189500008C
:1000C000189500001895000018950000189500007C
:1000D000189500001895000018950000189500006C
:1000E000189500008FEF8DBFC8EDE0EC4E2E81E239
:1000F0008EBFD1E2F1E25F2EA89584B7082E877FEC
:1001000084BF88E199278093600090936000EEEFB0
:10011000FFE1A0E0B2E088278D933197E9F787E609
:100120008093C40080E08093C50088E18093C10083
:1001300066240E945503809A819A579A3B9A39986F
:10014000889A89980E943A035F984398E6E281E092
:100150000FEF0E943304A1E0B2E08D939C9388ECF2
:1001600090E00E9410045F98439AE6E281E00FEF6E
:100170000E943304A5E0B2E08D939C9388EC90E05C
:100180000E9410045F9A439AE6E281E00FEF0E941A
:100190003304A3E0B2E08D939C9388EC90E00E943E
:1001A00010045F9A4398E6E281E00FEF0E94330467
:1001B000A7E0B2E08D939C9388EC90E00E9410043D
:1001C000E2EBF9E00E9469040E942203A8EAB1E28E
:1001D000E1E0F2E00E9480040E941A03E8EBF9E0FB
:1001E0000E9469040E942203A8EAB1E2E5E0F2E07D
:1001F0000E9480040E941A03EEEBF9E00E94690459
:100200000E942203A8EAB1E2E3E0F2E00E94800447
:100210000E941A03E6ECF9E00E9469040E9422039E
:10022000A8EAB1E2E7E0F2E00E9480040E941A032B
:100230000E942903A1E0B2E00D911C91023050E030
:10024000150781E008F480E08F93A5E0B2E00D91FE
:100250001C91013050E0150781E009F080E09F918A
:1002600089238F93A3E0B2E00D911C91023050E0FE
:10027000150781E008F480E09F9189238F93A7E020
:10028000B2E00D911C91003050E0150781E009F0BB
:1002900080E09F918923882311F40C9451010E94DE
:1002A000A302A1E0B2E00D911C91023150E01507CC
:1002B00081E010F009F080E08F93A5E0B2E00D91AD
:1002C0001C910B3050E0150781E010F009F080E040
:1002D0009F9189238F93A3E0B2E00D911C91083088
:1002E00050E0150781E009F080E09F9189238F930A
:1002F000A7E0B2E00D911C91033050E0150781E0BA
:1003000009F080E09F918923882311F40C948A01DD
:100310000E94B402A1E0B2E00D911C91023050E0C5
:10032000150781E009F080E08F93A5E0B2E00D9120
:100330001C91043050E0150781E009F080E09F91A6
:1003400089238F93A3E0B2E00D911C91023050E01D
:10035000150781E009F080E09F9189238F93A7E042
:10036000B2E00D911C91003050E0150781E009F0DA
:1003700080E09F918923882311F40C94C1010E948D
:10038000C502A1E0B2E00D911C91033050E01507C9
:1003900081E009F080E08F93A5E0B2E00D911C911F
:1003A000073050E0150781E009F080E09F91892334
:1003B0008F93A3E0B2E00D911C910B3050E0150734
:1003C00081E010F009F080E09F9189238F93A7E0EE
:1003D000B2E00D911C91013050E0150781E009F069
:1003E00080E09F918923882311F40C94F9010E94E5
:1003F000D602A1E0B2E00D911C910F3050E015073C
:1004000081E010F009F080E08F93A5E0B2E00D915B
:100410001C91033050E0150781E009F080E09F91C6
:1004200089238F93A3E0B2E00D911C91093050E035
:10043000150781E009F080E09F9189238F93A7E061
:10044000B2E00D911C91023050E0150781E009F0F7
:1004500080E09F918923882311F40C9431020E943B
:10046000E702A1E0B2E00D911C91013050E01507C8
:1004700081E009F080E08F93A5E0B2E00D911C913E
:10048000063050E0150781E009F080E09F91892354
:100490008F93A3E0B2E00D911C91063050E0150758
:1004A00081E009F080E09F9189238F93A7E0B2E07B
:1004B0000D911C91013050E0150781E009F080E0BA
:1004C0009F918923882311F40C9468020E940903E8
:1004D000A1E0B2E00D911C91083150E0150781E0D8
:1004E00010F009F080E08F93A5E0B2E00D911C912F
:1004F000013150E0150781E010F009F080E09F9194
:1005000089238F93A3E0B2E00D911C91083150E054
:10051000150781E009F080E09F9189238F93A7E080
:10052000B2E00D911C91063050E0150781E009F012
:1005300080E09F918923882311F40C94A1020E94EA
:10054000F8020C94A4000E943A038FEB13E00E947F
:100550004903EEECF9E00E9469040E943303E1E0F4
:10056000F0E00E944C0308950E943A038FEB13E0E1
:100570000E944903ECEDF9E00E9469040E943303F4
:10058000E1E0F0E00E944C0308950E943A038FEBF3
:1005900013E00E944903E8EEF9E00E9469040E941A
:1005A0003303E1E0F0E00E944C0308950E943A0317
:1005B0008FEB13E00E944903E8EFF9E00E94690421
:1005C0000E943303E1E0F0E00E944C0308950E9492
:1005D0003A038FEB13E00E944903E4E0FAE00E9443
:1005E00069040E943303E1E0F0E00E944C030895A7
:1005F0000E943A038FEB13E00E944903E0E1FAE026
:100600000E9469040E943303E1E0F0E00E944C0381
:1006100008950E943A038FEB13E00E944903ECE136
:10062000FAE00E9469040E943303E1E0F0E00E94D6
:100630004C030895A8EAB1E28D91882311F00CD003
:10064000FBCF08950E941F04802D11F005D0FACF32
:1006500008958DE001D08AE00090C00005FEFCCF37
:100660008093C60008950E941F04802D11F095D03C
:10067000FACF089581E09BD015D080E898C08FE72D
:10068000213039F08FEB223021F083E9233009F05B
:1006900083ED810F0C94D70388EE93E0C1D031979E
:1006A000D9F7089583E09927BBC08AEF90E00E94B4
:1006B00010040F9A0D9A0B9A099A709101017160BA
:1006C000709301017091010172607093010170914A
:1006D00002017D7F7093020185E090E00E9410048A
:1006E000709102017E7F7093020117981598139AFA
:1006F000119A70910201716070930201EF93FF9360
:10070000ECE8F1E00E940404FF91EF917091020186
:100710007E7F7093020181D07091020171607093AD
:100720000201EF93FF93ECE8F1E00E940404FF91D3
:10073000EF91709102017E7F709302016ED07091F3
:100740000201716070930201EF93FF93ECE8F1E016
:100750000E940404FF91EF91709102017E7F7093DB
:1007600002015BD0119870910201716070930201D7
:10077000EF93FF93ECE8F1E00E940404FF91EF9106
:10078000709102017E7F7093020147D088E20FD002
:100790008EE00DD086E00BD008957091020172605A
:1007A00070930201829509D008D037D008957091D6
:1007B00002017D7F70930201F5CF859510F4119AA7
:1007C00001C01198859510F4139A01C0139885956E
:1007D00010F4159A01C01598859510F4179A01C068
:1007E000179870910201716070930201EF93FF936B
:1007F000ECE8F1E00E940404FF91EF917091020196
:100800007E7F7093020108953197F1F708956894FF
:1008100062F80895E89462F8089581E090E000C0DD
:10082000EF93FF93EE27E82BE92B31F0E0EAFFE0AE
:100830003197F1F70197D1F7FF91EF910895D8958E
:10084000319628F48F938BB783958BBF8F910020BF
:10085000089591E0882321F08894991F8A95E9F7FB
:10086000892F909508950E940A04FF27AA27BB2785
:100870000E942904082301800922018200800822A5
:10088000002619F41196D1F0F9CFAA27BB270080D2
:100890000822002619F0119689F0F9CFAA27BB2764
:1008A000EF93FF93E0E2F0E00E940404FF91EF91E8
:1008B00000800822002621F4119691F70E94070477
:1008C0008A2F9B2F08950F9301E00BBF0F918894FF
:1008D00008950F930027F9CF0F9302E0F6CF0F93FF
:1008E00003E0F3CF000F111F221F331F089500955F
:1008F0001095209530950F5F1F4F2F4F3F4F089554
:10090000019110810EC001911191219130810BC094
:100910000191108117FF05C03FEF2FEF04C0008148
:1009200011272227332737FF03C0E1DF8DE28D93A4
:10093000CF93DF93CF92DF92EF92AA24BB24CC24F3
:10094000DD24EE2440E2CAE0DD2755E093E3888110
:10095000890F87FD9F7083FD907F891B89935A952E
:10096000A9F7C0DFAA1CBB1CCC1CDD1CEE1C4A95E1
:1009700051F7E894EFE0FF2782910ED0EB30E0F7DB
:100980001EF068948A2D0CD088278D93EF90DF900D
:10099000CF90DF91CF910895982F829501D0892F24
:1009A0008F70805D26F0803309F4089568948D93EC
:1009B0000895726F6A6F2000617A756C2000766509
:1009C000726465200000626C616E636F2000434FAB
:1009D0004C4F5220424C414E434F0000434F4C4F2E
:1009E0005220564552444500434F4C4F5220414DF2
:1009F0004152494C4C4F0000434F4C4F5220524FF4
:100A00004A4F0000434F4C4F5220415A554C000072
:100A1000434F4C4F52204E4547524F00434F4C4F8F
:0A0A200052204E4152414E4A41005F
:00000001FF
