:100000000C94340018950000189500001895000015
:10001000189500001895000018950000189500002C
:10002000189500001895000018950000189500001C
:10003000189500001895000018950000189500000C
:1000400018950000189500001895000018950000FC
:1000500018950000189500001895000018950000EC
:1000600018950000189500008FEF8DBFC8EDE0ECEB
:100070004E2E88E08EBFD8E0F8E05F2EA89584B7BA
:10008000082E877F84BF88E1992780936000909332
:100090006000EEEFF7E0A0E0B1E088278D933197A4
:1000A000E9F766240E94120157985698259A249AD7
:1000B000239A229A2D982C982B982A984F990C9431
:1000C00063000C9478004E990C9468000C94B40072
:1000D0000E94F7008FE711E00E940601E0E4F3E0E0
:1000E0000E94F000E1E0F0E00E9409010C945A0047
:1000F0000E94F7008FE711E00E940601EEE4F3E0B2
:100100000E94F0008FEB16E00E940601E8E5F3E0A4
:100110000E94F00082E390E00E948D012D9A2C98BD
:100120002B982A9A8EE190E00E948D012D982C98B0
:100130002B9A2A9A8EE190E00E948D012D982C9A9C
:100140002B9A2A988EE190E00E948D012D9A2C9A8C
:100150002B982A988EE190E00E948D012D9A2C9880
:100160002B982A9A0C945A000E94F7008FE711E00E
:100170000E940601EEE4F3E00E94F0008FEB16E02F
:100180000E940601E0E6F3E00E94F00082E390E0C6
:100190000E948D012D9A2C9A2B982A988EE190E03E
:1001A0000E948D012D982C9A2B982A9A8EE190E02E
:1001B0000E948D012D982C982B9A2A9A8EE190E01E
:1001C0000E948D012D9A2C982B9A2A988EE190E00E
:1001D0000E948D012D9A2C9A2B982A980C945A00E3
:1001E0000E949C01802D11F065D0FACF089581E026
:1001F00067D015D080E864C08FE7213039F08FEBED
:10020000223021F08FE8233009F08FEC810F0C941D
:10021000600188EE93E081D03197D9F7089583E0AB
:1002200099277BC08AEF90E00E948D013D9A3C9A0D
:100230003B9A3A9A399A389A409885E090E00E9421
:100240008D01419845984498439A429A419AEF9378
:10025000FF93ECE8F1E00E948101FF91EF9141985A
:1002600059D0419AEF93FF93ECE8F1E00E948101AD
:10027000FF91EF9141984ED0419AEF93FF93ECE8B4
:10028000F1E00E948101FF91EF91419843D04298A3
:10029000419AEF93FF93ECE8F1E00E948101FF9116
:1002A000EF91419837D088E20BD08EE009D086E0FC
:1002B00007D00895409A829505D004D02BD0089598
:1002C0004098F9CF859510F4429A01C042988595DF
:1002D00010F4439A01C04398859510F4449A01C0E4
:1002E0004498859510F4459A01C04598419AEF933A
:1002F000FF93ECE8F1E00E948101FF91EF914198BA
:1003000008953197F1F70895689462F80895E89494
:1003100062F8089581E090E000C0EF93FF93EE272C
:10032000E82BE92B31F0E0EAFFE03197F1F7019794
:10033000D1F7FF91EF910895C89531960020089567
:100340004D4F544F52204150414741444F0047497F
:10035000524F2041204C4100444552454348410002
:0A036000495A5155494552444100E5
:00000001FF
