:100000000C94340018950000189500001895000015
:10001000189500001895000018950000189500002C
:10002000189500001895000018950000189500001C
:10003000189500001895000018950000189500000C
:1000400018950000189500001895000018950000FC
:1000500018950000189500001895000018950000EC
:1000600018950000189500008FEF8DBFC8EDE0ECEB
:100070004E2E88E08EBFD8E0F8E05F2EA89584B7BA
:10008000082E877F84BF88E1992780936000909332
:100090006000EEEFF7E0A0E0B1E088278D933197A4
:1000A000E9F78BEC8093C40080E08093C50088E181
:1000B0008093C1006624259A249A239A229A0E944A
:1000C000C600A0E0B1E08C9300910001013611F070
:1000D0000C946B002D9A00910001023611F00C94E3
:1000E00072002C9A00910001033611F00C947900F3
:1000F0002B9A00910001043611F00C9480002A9A8A
:1001000000910001073711F00C9487002D980091A1
:100110000001083711F00C948E002C98009100011A
:10012000093711F00C9495002B98009100010A37C3
:1001300011F00C949C002A98009100010D3611F0EA
:100140000C94A4000C94AE00009100010E3611F046
:100150000C94AC000C94C0000C945F002D9AE1E06C
:10016000F0E00E94D3002C9AE1E0F0E00E94D3007E
:100170002B9AE1E0F0E00E94D3002A9A0C945F00F1
:100180002D982C982B982A980C945F008827009023
:10019000C00007FE089500C08091C00087FFFCCF1B
:1001A0008091C600089588EE93E00CD03197D9F77E
:1001B00008953197F1F70895689462F80895E894E6
:1001C00062F80895EF93FF93EE27E82BE92B31F0C7
:1001D000E0EAFFE03197F1F70197D1F7FF91EF9156
:0201E000089580
:00000001FF
