:100000000C94340018950000189500001895000015
:10001000189500001895000018950000189500002C
:10002000189500001895000018950000189500001C
:10003000189500001895000018950000189500000C
:1000400018950000189500001895000018950000FC
:1000500018950000189500001895000018950000EC
:1000600018950000189500008FEF8DBFC8EDE0ECEB
:100070004E2E88E08EBFD8E0F8E05F2EA89584B7BA
:10008000082E877F84BF88E1992780936000909332
:100090006000EEEFF7E0A0E0B1E088278D933197A4
:1000A000E9F780EA8093C40081E08093C50088E18D
:1000B0008093C1006624209A559A529A21982298DA
:1000C000A3E2B0E00C9101FB81E00EF080E08F93A1
:1000D000A3E2B0E00C9102FB81E00EF080E09F9182
:1000E0008923882311F40C9477000E94C200A3E2B4
:1000F000B0E00C9101FB81E00EF080E08F93A3E271
:10010000B0E00C9102FB81E00EF480E09F91892326
:10011000882311F40C948E000E943801A3E2B0E011
:100120000C9101FB81E00EF480E08F93A3E2B0E03C
:100130000C9102FB81E00EF480E09F9189238823DB
:1001400011F40C94A5000E94C200A3E2B0E00C914F
:1001500001FB81E00EF480E08F93A3E2B0E00C910C
:1001600002FB81E00EF080E09F918923882311F447
:100170000C94C000E4ECF3E00E94B5010E94BC01C5
:100180000C946000A3E2B0E00C9101FB81E00EF062
:1001900080E08F93A3E2B0E00C9102FB81E00EF0CF
:1001A00080E09F918923882311F40C94DD00E8EC12
:1001B000F3E00E94B5010E94BC01A3E2B0E00C9103
:1001C00001FB81E00EF080E08F93A3E2B0E00C91A0
:1001D00002FB81E00EF480E09F918923882311F4D3
:1001E0000C94F800ECECF3E00E94B5010E94BC0115
:1001F000A3E2B0E00C9101FB81E00EF480E08F936C
:10020000A3E2B0E00C9102FB81E00EF480E09F914C
:100210008923882311F40C941301E0EDF3E00E948C
:10022000B5010E94BC0128985D9880E090E0A0E0B4
:10023000B1E08D939C93A0E0B1E00D911C91083C3E
:1002400050E0150718F011F00C9437015A9A81E02C
:1002500090E00E94CF015A9881E090E00E94CF0187
:10026000A0E0B1E00E94AE0110F40C941B010895CF
:10027000A3E2B0E00C9101FB81E00EF080E08F93EF
:10028000A3E2B0E00C9102FB81E00EF080E09F91D0
:100290008923882311F40C945301E8ECF3E00E94C5
:1002A000B5010E94BC01A3E2B0E00C9101FB81E02A
:1002B0000EF080E08F93A3E2B0E00C9102FB81E0AE
:1002C0000EF480E09F918923882311F40C946E0131
:1002D000ECECF3E00E94B5010E94BC01A3E2B0E0A7
:1002E0000C9101FB81E00EF480E08F93A3E2B0E07B
:1002F0000C9102FB81E00EF480E09F91892388231A
:1003000011F40C948901E0EDF3E00E94B5010E9424
:10031000BC0128985D9A80E090E0A0E0B1E08D9368
:100320009C93A0E0B1E00D911C91083C50E01507B2
:1003300018F011F00C94AD015A9A81E090E00E94FF
:10034000CF015A9881E090E00E94CF01A0E0B1E097
:100350000E94AE0110F40C9491010895ED91FC916E
:10036000EF5FFF4FFC93EE9308950E94DE01802D16
:1003700011F005D0FACF08958DE001D08AE0009009
:10038000C00005FEFCCF8093C60008953197F1F7B9
:100390000895689462F80895E89462F80895EF93D8
:1003A000FF93EE27E82BE92B31F0E0EAFFE03197ED
:1003B000F1F70197D1F7FF91EF910895C895319624
:1003C00000200895434300004143000041420000E3
:0403D00043420000A4
:00000001FF
