:100000000C94340018950000189500001895000015
:10001000189500001895000018950000189500002C
:10002000189500001895000018950000189500001C
:10003000189500001895000018950000189500000C
:1000400018950000189500001895000018950000FC
:1000500018950000189500001895000018950000EC
:1000600018950000189500008FEF8DBFC8EDE0ECEB
:100070004E2E88E08EBFD8E0F8E05F2EA89584B7BA
:10008000082E877F84BF88E1992780936000909332
:100090006000EEEFF7E0A0E0B1E088278D933197A4
:1000A000E9F7662438983998209A309B0C945A00C6
:1000B0000C945F00319B0C945F000C946B00289AA9
:1000C00080E090E00E948000289886E190E00E9405
:1000D00080000C945500289A82E090E00E948000F5
:1000E000289886E190E00E9480000C94550031979A
:1000F000F1F70895689462F80895E89462F8089515
:10010000EF93FF93EE27E82BE92B31F0E0EAFFE0D5
:0E0110003197F1F70197D1F7FF91EF91089524
:00000001FF
