:100000000C94340018950000189500001895000015
:10001000189500001895000018950000189500002C
:10002000189500001895000018950000189500001C
:10003000189500001895000018950000189500000C
:1000400018950000189500001895000018950000FC
:1000500018950000189500001895000018950000EC
:1000600018950000189500008FEF8DBFC8EDE0ECEB
:100070004E2E88E08EBFD8E0F8E05F2EA89584B7BA
:10008000082E877F84BF88E1992780936000909332
:100090006000EEEFF7E0A0E0B1E088278D933197A4
:1000A000E9F766240E949E000E9483008FE711E01A
:1000B0000E949200E8E5F2E00E947C00E3E0F0E0BC
:1000C0000E9495000E9483008FE711E00E94920039
:1000D000E4E6F2E00E947C008FEB11E00E949200C7
:1000E000E6E7F2E00E947C00E5E0F0E00E94950087
:1000F0000E9483000C9454000E942801802D11F06E
:1001000065D0FACF089581E067D015D080E864C04B
:100110008FE7213039F08FEB223021F08FE8233048
:1001200009F08FEC810F0C94EC0088EE93E081D005
:100130003197D9F7089583E099277BC08AEF90E043
:100140000E9419013D9A3C9A3B9A3A9A399A389AF8
:10015000409885E090E00E941901419845984498A4
:10016000439A429A419AEF93FF93ECE8F1E00E94A0
:100170000D01FF91EF91419859D0419AEF93FF9370
:10018000ECE8F1E00E940D01FF91EF9141984ED013
:10019000419AEF93FF93ECE8F1E00E940D01FF918B
:1001A000EF91419843D04298419AEF93FF93ECE846
:1001B000F1E00E940D01FF91EF91419837D088E264
:1001C0000BD08EE009D086E007D00895409A829542
:1001D00005D004D02BD008954098F9CF859510F420
:1001E000429A01C04298859510F4439A01C0439801
:1001F000859510F4449A01C04498859510F4459A69
:1002000001C04598419AEF93FF93ECE8F1E00E941A
:100210000D01FF91EF91419808953197F1F70895FD
:10022000689462F80895E89462F8089581E090E097
:1002300000C0EF93FF93EE27E82BE92B31F0E0EAC3
:10024000FFE03197F1F70197D1F7FF91EF91089512
:10025000C895319600200895202020202020555454
:100260004E430000202020494E47454E4945524903
:100270004120202000002020204D45434154524F72
:060280004E49434100005D
:00000001FF
