:100000000C94340018950000189500001895000015
:10001000189500001895000018950000189500002C
:10002000189500001895000018950000189500001C
:10003000189500001895000018950000189500000C
:1000400018950000189500001895000018950000FC
:1000500018950000189500001895000018950000EC
:1000600018950000189500008FEF8DBFC8EDE0ECEB
:100070004E2E88E08EBFD8E0F8E05F2EA89584B7BA
:10008000082E877F84BF88E1992780936000909332
:100090006000EEEFF7E0A0E0B1E088278D933197A4
:1000A000E9F766240E94C4005798259A249A2C9850
:1000B0002D984F990C945E000C9466000E94A90044
:1000C000E4EAF2E00E94A2000C9457000E94A9000A
:1000D00084E690E00E943F012C9A8FE711E00E9495
:1000E000B800E0EBF2E00E94A2008FEB11E00E946A
:1000F000B800E0ECF2E00E94A200E5E0F0E00E942F
:10010000BB000E94A9002D9A8FE711E00E94B80061
:10011000E6ECF2E00E94A2008FEB11E00E94B80032
:10012000E6EDF2E00E94A200EAE0F0E00E94BB00EF
:100130002D982C980E94A90084E690E00E943F012F
:100140000C9457000E944E01802D11F065D0FACF1B
:10015000089581E067D015D080E864C08FE7213032
:1001600039F08FEB223021F08FE8233009F08FEC4B
:10017000810F0C94120188EE93E081D03197D9F76A
:10018000089583E099277BC08AEF90E00E943F01A9
:100190003D9A3C9A3B9A3A9A399A389A409885E027
:1001A00090E00E943F01419845984498439A429AB2
:1001B000419AEF93FF93ECE8F1E00E943301FF9145
:1001C000EF91419859D0419AEF93FF93ECE8F1E019
:1001D0000E943301FF91EF9141984ED0419AEF93E5
:1001E000FF93ECE8F1E00E943301FF91EF91419819
:1001F00043D04298419AEF93FF93ECE8F1E00E94DC
:100200003301FF91EF91419837D088E20BD08EE017
:1002100009D086E007D00895409A829505D004D091
:100220002BD008954098F9CF859510F4429A01C0DB
:100230004298859510F4439A01C04398859510F42F
:10024000449A01C04498859510F4459A01C0459898
:10025000419AEF93FF93ECE8F1E00E943301FF91A4
:10026000EF91419808953197F1F70895689462F8F5
:100270000895E89462F8089581E090E000C0EF935B
:10028000FF93EE27E82BE92B31F0E0EAFFE031970E
:10029000F1F70197D1F7FF91EF910895C895319645
:1002A0000020089541726561205365677572610091
:1002B00053652048612044657465637461646F0010
:1002C000467565676F0020202056656E74696C6105
:1002D000646F72200000202020456E63656E6469A3
:0402E000646F000047
:00000001FF
