:100000000C94340018950000189500001895000015
:10001000189500001895000018950000189500002C
:10002000189500001895000018950000189500001C
:10003000189500001895000018950000189500000C
:1000400018950000189500001895000018950000FC
:1000500018950000189500001895000018950000EC
:1000600018950000189500008FEF8DBFC8EDE0ECEB
:100070004E2E88E08EBFD8E0F8E05F2EA89584B7BA
:10008000082E877F84BF88E1992780936000909332
:100090006000EEEFF7E0A0E0B1E088278D933197A4
:1000A000E9F7662487E880937A0080E480937C00F7
:1000B00070917A00706870937A0038980E94DD0021
:1000C0000E94C2008CE00E942B01E0EEF6E00E944C
:1000D000BB008FED0E942501ECEEF6E00E94BB0014
:1000E00000917C00007F006000937C000E944A0227
:1000F000A0E0B1E08C93E8EDF6E00E945D03E0E063
:10010000F1E0D080EE24FF2400270E9485020E94A7
:100110002803EDE0F0E0A1E0B1E00E946603ECED21
:10012000F6E00E945D03E1E0F1E00E9461020E94BE
:10013000D202EDE0F0E0A5E0B1E00E9466038FE7B7
:1001400018E00E94D100A8EAB8E0E5E0F1E00E94E2
:1001500061020E9467010E94B300E1E0F0E00E94AA
:10016000D4000C946000A8EAB8E08D91882311F0C7
:100170006CD0FBCF08950E945903802D11F065D0FB
:10018000FACF089581E067D015D080E864C08FE78A
:10019000213039F08FEB223021F08FE8233009F045
:1001A0008FEC810F0C942B0188EE93E081D0319776
:1001B000D9F7089583E099277BC08AEF90E00E94E9
:1001C0005801579A569A559A549A539A529A5A984D
:1001D00085E090E00E9458015B985F985E985D9A78
:1001E0005C9A5B9AEF93FF93ECE8F1E00E944C017C
:1001F000FF91EF915B9859D05B9AEF93FF93ECE8F6
:10020000F1E00E944C01FF91EF915B984ED05B9A18
:10021000EF93FF93ECE8F1E00E944C01FF91EF9126
:100220005B9843D05C985B9AEF93FF93ECE8F1E026
:100230000E944C01FF91EF915B9837D088E20BD080
:100240008EE009D086E007D008955A9A829505D0AD
:1002500004D02BD008955A98F9CF859510F45C9A64
:1002600001C05C98859510F45D9A01C05D988595F4
:1002700010F45E9A01C05E98859510F45F9A01C0F3
:100280005F985B9AEF93FF93ECE8F1E00E944C01DA
:10029000FF91EF915B9808953197F1F70895689475
:1002A00062F80895E89462F8089581E090E000C053
:1002B000EF93FF93EE27E82BE92B31F0E0EAFFE024
:1002C0003197F1F70197D1F7FF91EF9108958DE202
:1002D00007FD8D938F2D881F802F881F8F57082F24
:1002E0006894F7F8802F87FF15C080958395082FB5
:1002F00080E38D938EE28D93802F815228F080E3EE
:100300008D9399279C93089544270A95802F09F18E
:1003100096D01FC0805230F09EE49D9381E48D936F
:100320009D93EFCF4427DF92EF92FF920F938FE1DF
:10033000801B11F0082F83D089D09EE29D930F91EE
:10034000FF90EF90DF9044270395003209F4D7CF58
:100350002BD03F93EEEDF3E038E12F2D1E2D0D2D28
:10036000FF24EE24DD244427000F111F221FA8F4D0
:100370002F923F920E945903102C0E945903202C67
:100380000E945903302C0E9459033197410DD21C11
:10039000E31CF01C3F902F9001C0339631963A95A4
:1003A00019F73F9107D0AFCFDD0CEE1CFF1C0A956B
:1003B000D9F70895002719E058D08F93802B11F0BA
:1003C000039501C08F911A95B9F7802F882309F4FE
:1003D00096CF8F91805D8D930A95D9F792CF006566
:1003E000CD1D80B2E60E40597307A0ACB90350D6BC
:1003F000DC01286BEE0094357700CA9A3B0065CD8E
:100400001D00B2E60E0059730700ACB90300D6DC3C
:1004100001006BEE0000357700009A3B0000CD1D17
:100420000000E60E000073070000B9030000DC01C5
:100430000000EE000000770000003B000000F69492
:10044000E794D79447950A95D1F7089500270DD0E2
:100450008F9303958F2D8E298D29842BC1F78F9132
:10046000805D8D930A95D9F74CCF1F930F9300278A
:1004700010E2440FDD1CEE1CFF1C001F802F9AE0D1
:10048000890B10F0082F43951A9599F7802F0F913B
:100490001F91089570917A00706470937A000090B3
:1004A0007A0006FCFCCF70917A00706470937A0039
:1004B00000907A0006FCFCCF809178009091790042
:1004C0000895D190E190F190019108952191319199
:1004D000419151910895102F90E8FF0C001F0927BA
:1004E000990FF7941078652F90E8440F551F5927FE
:1004F000990F4795607800380895FF0C90E8902791
:10050000110F9795F794092F0895102FBD2CDE2C0D
:10051000EF2CF02E11234AF4B094D094E094F09490
:100520009FEFB91AD90AE90AF90A0EE1FF2039F456
:10053000FE2CED2CDB2CBB240850C2F767C032F038
:100540000A95BB0CDD1CEE1CFF1CF9CF0E94A90212
:10055000D4CFB7FE089590E8B91611F4D0FE0895EF
:100560009FEFD91AE90AF90A09F403950895502F63
:100570002D2D3E2D4F2D612F08952DEC3CEC4CEC94
:100580005DE366270FC09DDFF2DFDD24EE2490E8F7
:10059000F92E0FE307C09ADF05C02227332740E278
:1005A00051E46627552351F1002381F194DF71F165
:1005B0001627005850580894050B18F407FD03C07F
:1005C00025C007FD23C0469537952795F694E794F7
:1005D000D79422D0FF202AF0DD0CEE1CFF1C015026
:1005E00073F09D2D969548F0DD203AF4EE202AF424
:1005F00091E0D90E9927E91EF91E7FCF07C09FE72A
:10060000092FF92A9FEFD92EE92E0895DD24EE2433
:10061000FF240027112708959F929924AA24BB2420
:1006200088E1D216E306F40628F0D21AE30AF40AA7
:10063000089401C08894991CAA1CBB1CDD0CEE1CFC
:10064000FF1C8A9571F7D92CEA2CFB2C9F900895FA
:1006500042DFE1F25038D1F2162700585058089482
:10066000051F12F418F4CBCF08F0D0CF0BD0FF2029
:100670002AF0BB0CDD1CEE1CFF1C3FCF0F5F0BF400
:10068000BECF3BCF9F929924AA24BB24992788E10F
:10069000990CAA1CBB1CDD1CEE1CFF1C30F4920E36
:1006A000A31EB41ED91EE91EF91E8A9589F79F90D4
:1006B0000895C895319600200895FBDF202DF9DFBD
:1006C000302DF7DF402DF5DF502D089594E0819116
:1006D0008D939A95E1F708950000A0400000204115
:0E06E00054454D50203D202020202000430096
:00000001FF
