:100000000C94340018950000189500001895000015
:10001000189500001895000018950000189500002C
:10002000189500001895000018950000189500001C
:10003000189500001895000018950000189500000C
:1000400018950000189500001895000018950000FC
:1000500018950000189500001895000018950000EC
:1000600018950000189500008FEF8DBFC8EDE0ECEB
:100070004E2E88E08EBFD8E0F8E05F2EA89584B7BA
:10008000082E877F84BF88E1992780936000909332
:100090006000EEEFF7E0A0E0B1E088278D933197A4
:1000A000E9F78BEC8093C40080E08093C50088E181
:1000B0008093C1006624209A0E94CA000E94A10079
:1000C000A0E0B1E08C9300910001013011F00C949C
:1000D0006B000C94750000910001023011F00C943B
:1000E00073000C948B000C945E000E94B5008FE7A7
:1000F00011E00E94C400E0EBF2E00E94AE00289AFA
:1001000080E090E00E944501289886E190E00E94FE
:1001100045010C945E000E94B5008FE711E00E943B
:10012000C400EAEBF2E00E94AE00289A82E090E080
:100130000E944501289886E190E00E9445010C94B8
:100140005E0088270090C00007FE089500C08091DF
:10015000C00087FFFCCF8091C60008950E94540123
:10016000802D11F05FD0FACF089581E061D00FD0DB
:1001700080E85EC08FE7213039F08FEB223021F02C
:100180008FE8233009F08FEC810F0C94180183E085
:1001900099277BC08AEF90E00E9445013D9A3C9AE6
:1001A0003B9A3A9A399A389A409885E090E00E94B2
:1001B0004501419845984498439A429A419AEF9351
:1001C000FF93ECE8F1E00E943901FF91EF91419833
:1001D00059D0419AEF93FF93ECE8F1E00E94390186
:1001E000FF91EF9141984ED0419AEF93FF93ECE845
:1001F000F1E00E943901FF91EF91419843D042987C
:10020000419AEF93FF93ECE8F1E00E943901FF91EE
:10021000EF91419837D088E20BD08EE009D086E08C
:1002200007D00895409A829505D004D02BD0089528
:100230004098F9CF859510F4429A01C0429885956F
:1002400010F4439A01C04398859510F4449A01C074
:100250004498859510F4459A01C04598419AEF93CA
:10026000FF93ECE8F1E00E943901FF91EF91419892
:1002700008953197F1F70895689462F80895E89425
:1002800062F8089581E090E000C0EF93FF93EE27BD
:10029000E82BE92B31F0E0EAFFE03197F1F7019725
:1002A000D1F7FF91EF910895C895319600200895F8
:1002B0003020475241444F530000313830204752DC
:0602C00041444F53000011
:00000001FF
