:100000000C947200189500001895000018950000D7
:10001000189500001895000018950000189500002C
:10002000189500001895000018950000189500001C
:10003000189500001895000018950000189500000C
:1000400018950000189500001895000018950000FC
:1000500018950000189500001895000018950000EC
:1000600018950000189500001895000018950000DC
:1000700018950000189500001895000018950000CC
:1000800018950000189500001895000018950000BC
:1000900018950000189500001895000018950000AC
:1000A000189500001895000018950000189500009C
:1000B000189500001895000018950000189500008C
:1000C000189500001895000018950000189500007C
:1000D000189500001895000018950000189500006C
:1000E000189500008FEF8DBFC8EDE0EC4E2E81E239
:1000F0008EBFD1E2F1E25F2EA89584B7082E877FEC
:1001000084BF88E199278093600090936000EEEFB0
:10011000FFE1A0E0B2E088278D933197E9F787E609
:100120008093C40080E08093C50088E18093C10083
:1001300066240E9A0C9A0A9A0E946201A1E0B2E02B
:100140008C9381E6482F00910102041711F00C9462
:10015000AB000C94C90082E6482F009101020417FD
:1001600011F00C94B5000C94120183E6482F009115
:100170000102041711F00C94BF000C949C00E2E6FD
:10018000F3E00E94A8010E946F010E9476010C9486
:100190009C000E946201A1E0B2E08C9381E6482FAE
:1001A00000910102041711F00C94D8000C94C900BE
:1001B00082E6482F00910102041711F00C94E2002E
:1001C0000C94120183E6482F00910102041711F0EC
:1001D0000C94EC000C949C001298169880E090E02F
:1001E000A2E0B2E08D939C93A2E0B2E00D911C914D
:1001F000083C50E0150718F011F00C941001149A07
:1002000081E090E00E948901149881E090E00E94D2
:100210008901A2E0B2E00E945B0110F40C94F400AA
:100220000C94C9000E946201A1E0B2E08C9381E6C7
:10023000482F00910102041711F00C9421010C9435
:10024000C90082E6482F00910102041711F00C94B6
:100250002B010C94120183E6482F00910102041730
:1002600011F00C9435010C949C001298169A80E0C1
:1002700090E0A2E0B2E08D939C93A2E0B2E00D91F9
:100280001C91083C50E0150718F011F00C9459012E
:10029000149A81E090E00E948901149881E090E036
:1002A0000E948901A2E0B2E00E945B0110F40C946C
:1002B0003D010C941201ED91FC91EF5FFF4FFC9317
:1002C000EE93089588270090C00007FE089500C0AF
:1002D0008091C00087FFFCCF8091C60008950E94E6
:1002E0009801802D11F005D0FACF08958DE001D04E
:1002F0008AE00090C00005FEFCCF8093C600089500
:100300003197F1F70895689462F80895E89462F8D7
:100310000895EF93FF93EE27E82BE92B31F0E0EA05
:10032000FFE03197F1F70197D1F7FF91EF91089531
:10033000D895319628F48F938BB783958BBF8F9187
:10034000002008950F9301E00BBF0F91889408954A
:100350000F930027F9CF0F9302E0F6CF0F9303E03E
:06036000F3CF323400006F
:00000001FF
