:100000000C947200189500001895000018950000D7
:10001000189500001895000018950000189500002C
:10002000189500001895000018950000189500001C
:10003000189500001895000018950000189500000C
:1000400018950000189500001895000018950000FC
:1000500018950000189500001895000018950000EC
:1000600018950000189500001895000018950000DC
:1000700018950000189500001895000018950000CC
:1000800018950000189500001895000018950000BC
:1000900018950000189500001895000018950000AC
:1000A000189500001895000018950000189500009C
:1000B000189500001895000018950000189500008C
:1000C000189500001895000018950000189500007C
:1000D000189500001895000018950000189500006C
:1000E000189500008FEF8DBFC8EDE0EC4E2E81E239
:1000F0008EBFD1E2F1E25F2EA89584B7082E877FEC
:1001000084BF88E199278093600090936000EEEFB0
:10011000FFE1A0E0B2E088278D933197E9F787E609
:100120008093C40080E08093C50088E18093C10083
:1001300066240E94A903809A819A579A3B9A6D9AE5
:1001400039986C98889A89980E948E0380E08093F1
:1001500009025F984398E6E281E00FEF0E948B046A
:10016000A1E0B2E08D939C9384E690E00E94640449
:100170005F98439AE6E281E00FEF0E948B04A5E0CE
:10018000B2E08D939C9384E690E00E9464045F9AB1
:10019000439AE6E281E00FEF0E948B04A3E0B2E015
:1001A0008D939C9384E690E00E9464045F9A439848
:1001B000E6E281E00FEF0E948B04A7E0B2E08D93AE
:1001C0009C9384E690E00E946404E2E6FAE00E94D8
:1001D000C1040E946E03A8EAB1E2E1E0F2E00E94ED
:1001E000D8040E946603E8E6FAE00E94C1040E9477
:1001F0006E03A8EAB1E2E5E0F2E00E94D8040E94B2
:100200006603EEE6FAE00E94C1040E946E03A8EACB
:10021000B1E2E3E0F2E00E94D8040E946603E6E760
:10022000FAE00E94C1040E946E03A8EAB1E2E7E08E
:10023000F2E00E94D8040E9466030E94750383E9DD
:1002400011E00E949D03EEE7FAE00E94C1040E94C3
:100250008703A1E0B2E00D911C91043150E0150735
:1002600081E010F009F080E08F93A5E0B2E00D91FD
:100270001C910B3050E0150781E008F480E09F915D
:1002800089238F93A5E0B2E00D911C91043150E0D9
:10029000150781E010F009F080E09F9189238F938A
:1002A000A3E0B2E00D911C91063150E0150781E00A
:1002B00010F009F080E09F9189238F93A7E0B2E0CE
:1002C0000D911C91053050E0150781E010F009F008
:1002D00080E09F918923882311F40C9471010E947E
:1002E000E801A1E0B2E00D911C91003150E015074A
:1002F00081E010F009F080E08F93A5E0B2E00D916D
:100300001C91043350E0150781E010F009F080E003
:100310009F9189238F93A3E0B2E00D911C9102324B
:1003200050E0150781E008F480E09F9189238F93C6
:10033000A7E0B2E00D911C91073050E0150781E075
:1003400008F480E09F918923882311F40C94AA017A
:100350000E9453028FEB13E00E949D03A8EAB1E2D2
:10036000E9E0F2E00E94E7040E947F03E2E9FAE09C
:100370000E94C1040E9487038FE715E00E949D033D
:10038000A8EAB1E2EAE0F2E00E94D8040E947F030A
:10039000E0EAFAE00E94C1040E948703A8EAB1E201
:1003A000ECE0F2E00E94D8040E947F03E6EAFAE063
:1003B0000E94C1040E94870382E390E00E946404CB
:1003C00000910E02013011F00C94A9000C94DF0290
:1003D0000E948E038FEB13E00E949D03A8EAB1E216
:1003E000E9E0F2E00E94E7040E947F03E2E9FAE01C
:1003F0000E94C1040E9487038FE715E00E949D03BD
:10040000A8EAB1E2EAE0F2E00E94D8040E947F0389
:10041000E0EAFAE00E94C1040E948703A8EAB1E280
:10042000ECE0F2E00E94D8040E947F03EAEAFAE0DE
:100430000E94C1040E94870383E913E00E949D0388
:10044000E0EBFAE00E94C1040E9487030E94D402FC
:10045000E1E0F0E00E94A0030E94C902ACE0B2E03B
:100460000D911C9141E050E0040F151FACE0B2E08B
:100470000D931C9300910C0240910A02040FA9E015
:10048000B2E00C93ACE0B2E00D911C91033050E06F
:10049000150711F00C944E020E94DF02E3E0F0E039
:1004A0000E94A00308950E948E038FEB13E00E9428
:1004B0009D03A8EAB1E2E9E0F2E00E94E7040E94AD
:1004C0007F03E2E9FAE00E94C1040E9487038FE7FC
:1004D00015E00E949D03A8EAB1E2EAE0F2E00E9482
:1004E000D8040E947F03E0EAFAE00E94C1040E945F
:1004F0008703A8EAB1E2ECE0F2E00E94D8040E948F
:100500007F03EAEAFAE00E94C1040E94870383E9BC
:1005100013E00E949D03EEEBFAE00E94C1040E94EA
:1005200087030E94BE02E1E0F0E00E94A0030E9467
:10053000C902AAE0B2E00D911C9141E050E0040F25
:10054000151FAAE0B2E00D931C9300910C0240919C
:100550000A02040FA9E0B2E00C93AAE0B2E00D9108
:100560001C91033050E0150711F00C94B9020E9461
:10057000DF02E3E0F0E00E94A0030895759A82E0B4
:1005800090E00E946404759886E190E00E94640403
:100590000895759A81E090E00E946404759886E160
:1005A00090E00E9464040895759A82E090E00E94B1
:1005B0006404759886E190E00E946404089581E0E7
:1005C00080930E020E948E038FEB13E00E949D0326
:1005D000A8EAB1E2E9E0F2E00E94E7040E947F03AA
:1005E000E2E9FAE00E94C1040E9487038FE715E068
:1005F0000E949D03A8EAB1E2EAE0F2E00E94D8047A
:100600000E947F03E0EAFAE00E94C1040E9487038F
:10061000A8EAB1E2ECE0F2E00E94D8040E947F0375
:10062000EAEAFAE00E94C1040E94870383E913E02A
:100630000E949D03ECECFAE00E94C1040E94870333
:1006400064990C9425030E943C03ACE2B0E08C91C9
:1006500084FBA8EAB1E20E9487048D9388278C93DB
:100660000E9466030E947503E1E0F0E00E94A0038F
:100670000C9420030E94DF02ACE0B2E00D911C91CB
:10068000033050E0150711F00C944C0380E090E02B
:10069000ACE0B2E08D939C93AAE0B2E00D911C9186
:1006A000033050E0150711F00C945C0380E090E0FB
:1006B000AAE0B2E08D939C93A9E0B2E08C918350C4
:1006C0008C9380E080930E020C94A900A8EAB1E21A
:1006D0008D91882311F00CD0FBCF08950E947304F4
:1006E000802D11F005D0FACF08958DE001D08AE079
:1006F0000090C00005FEFCCF8093C6000895A8EAD4
:10070000B1E28D91882311F09CD0FBCF08950E9417
:100710007304802D11F095D0FACF089581E09BD01D
:1007200015D080E898C08FE7213039F08FEB223068
:1007300021F083E9233009F083ED810F0C942B0421
:1007400088EE93E0C1D03197D9F7089583E09927D7
:10075000BBC08AEF90E00E9464040F9A0D9A0B9A36
:10076000099A70910101716070930101709101010A
:10077000726070930101709102017D7F709302019C
:1007800085E090E00E946404709102017E7F709386
:10079000020117981598139A119A709102017160CD
:1007A00070930201EF93FF93ECE8F1E00E9458048C
:1007B000FF91EF91709102017E7F7093020181D0D1
:1007C00070910201716070930201EF93FF93ECE866
:1007D000F1E00E945804FF91EF91709102017E7F39
:1007E000709302016ED070910201716070930201EA
:1007F000EF93FF93ECE8F1E00E945804FF91EF9132
:10080000709102017E7F709302015BD0119870910C
:100810000201716070930201EF93FF93ECE8F1E045
:100820000E945804FF91EF91709102017E7F7093B6
:10083000020147D088E20FD08EE00DD086E00BD0C9
:10084000089570910201726070930201829509D03F
:1008500008D037D00895709102017D7F7093020116
:10086000F5CF859510F4119A01C01198859510F473
:10087000139A01C01398859510F4159A01C0159824
:10088000859510F4179A01C0179870910201716054
:1008900070930201EF93FF93ECE8F1E00E9458049B
:1008A000FF91EF91709102017E7F70930201089594
:1008B0003197F1F70895689462F80895E89462F822
:1008C000089581E090E000C0EF93FF93EE27E82BBE
:1008D000E92B31F0E0EAFFE03197F1F70197D1F72A
:1008E000FF91EF910895D895319628F48F938BB7A7
:1008F00083958BBF8F910020089591E0882321F08C
:100900008894991F8A95E9F7892F9095089580E337
:100910000EF4839508950E945E04FF27AA27BB2743
:100920000E947D04082301800922018200800822A0
:10093000002619F41196D1F0F9CFAA27BB27008021
:100940000822002619F0119689F0F9CFAA27BB27B3
:10095000EF93FF93E0E2F0E00E945804FF91EF91E3
:1009600000800822002621F4119691F70E945B0472
:100970008A2F9B2F08950F9301E00BBF0F9188944E
:1009800008950F930027F9CF0F9302E0F6CF0F934E
:1009900003E0F3CF000F111F221F331F08950095AE
:1009A0001095209530950F5F1F4F2F4F3F4F0895A3
:1009B000019110810EC001911191219130810BC0E4
:1009C0000191108117FF05C03FEF2FEF04C0008198
:1009D00011272227332737FF03C0E1DF8DE28D93F4
:1009E000CF93DF93CF92DF92EF92AA24BB24CC2443
:1009F000DD24EE2440E2CAE0DD2755E093E3888160
:100A0000890F87FD9F7083FD907F891B89935A957D
:100A1000A9F7C0DFAA1CBB1CCC1CDD1CEE1C4A9530
:100A200051F7E894EFE0FF2782910ED0EB30E0F72A
:100A30001EF068948A2D0CD088278D93EF90DF905C
:100A4000CF90DF91CF910895982F829501D0892F73
:100A50008F70805D26F0803309F4089568948D933B
:100A60000895726F6A6F2000617A756C2000766558
:100A7000726465200000626C616E636F20004553F4
:100A8000504552414E444F205049455A412E2E2E3A
:100A90000000205049455A415320544F54414C00C6
:100AA000204E4120000020424C0020424C200000FB
:100AB0005049455A4120424C414E43410000504963
:100AC000455A41204E4152414E4A4100434F4E54F7
:0E0AD000454E45444F52204C4C454E4F0000C1
:00000001FF
