:100000000C94340018950000189500001895000015
:10001000189500001895000018950000189500002C
:10002000189500001895000018950000189500001C
:10003000189500001895000018950000189500000C
:1000400018950000189500001895000018950000FC
:1000500018950000189500001895000018950000EC
:1000600018950000189500008FEF8DBFC8EDE0ECEB
:100070004E2E88E08EBFD8E0F8E05F2EA89584B7BA
:10008000082E877F84BF88E1992780936000909332
:100090006000EEEFF7E0A0E0B1E088278D933197A4
:1000A000E9F78BEC8093C40080E08093C50088E181
:1000B0008093C10066240E942901259A249A239ADC
:1000C000229A0E94FA00A0E0B1E08C930091000116
:1000D000013011F00C946E000C948200009100012C
:1000E000023011F00C9476000C94BE000E940E01B8
:1000F000EEE6F3E00E940701E1E0F0E00E9420015B
:100100000C9461000E940E018FE711E00E941D0116
:10011000EEE7F3E00E9407018FEB16E00E941D015D
:10012000E8E8F3E00E94070182E390E00E94A40166
:100130002D9A2C982B982A9A8EE190E00E94A40187
:100140002D982C982B9A2A9A8EE190E00E94A40177
:100150002D982C9A2B9A2A988EE190E00E94A40167
:100160002D9A2C9A2B982A988EE190E00E94A40157
:100170002D9A2C982B982A9A0C9461000E940E01BB
:100180008FE711E00E941D01EEE7F3E00E940701F6
:100190008FEB16E00E941D01E0E9F3E00E940701E9
:1001A00082E390E00E94A4012D9A2C9A2B982A9821
:1001B0008EE190E00E94A4012D982C9A2B982A9A07
:1001C0008EE190E00E94A4012D982C982B9A2A9AF7
:1001D0008EE190E00E94A4012D9A2C982B9A2A98E7
:1001E0008EE190E00E94A4012D9A2C9A2B982A98D7
:1001F0000C94610088270090C00007FE089500C09D
:100200008091C00087FFFCCF8091C60008950E94B6
:10021000B301802D11F065D0FACF089581E067D049
:1002200015D080E864C08FE7213039F08FEB2230A1
:1002300021F08FE8233009F08FEC810F0C947701C7
:1002400088EE93E081D03197D9F7089583E099271C
:100250007BC08AEF90E00E94A4013D9A3C9A3B9AB1
:100260003A9A399A389A409885E090E00E94A40121
:10027000419845984498439A429A419AEF93FF9344
:10028000ECE8F1E00E949801FF91EF91419859D07C
:10029000419AEF93FF93ECE8F1E00E949801FF91FF
:1002A000EF9141984ED0419AEF93FF93ECE8F1E043
:1002B0000E949801FF91EF91419843D04298419A52
:1002C000EF93FF93ECE8F1E00E949801FF91EF912A
:1002D000419837D088E20BD08EE009D086E007D075
:1002E0000895409A829505D004D02BD00895409867
:1002F000F9CF859510F4429A01C04298859510F483
:10030000439A01C04398859510F4449A01C04498DB
:10031000859510F4459A01C04598419AEF93FF9353
:10032000ECE8F1E00E949801FF91EF914198089567
:100330003197F1F70895689462F80895E89462F8A7
:10034000089581E090E000C0EF93FF93EE27E82B43
:10035000E92B31F0E0EAFFE03197F1F70197D1F7AF
:10036000FF91EF910895C895319600200895455367
:10037000504552414E444F204441544F000047499C
:10038000524F2041204C41004445524543484100D2
:0A039000495A5155494552444100B5
:00000001FF
