:100000000C947200189500001895000018950000D7
:10001000189500001895000018950000189500002C
:10002000189500001895000018950000189500001C
:10003000189500001895000018950000189500000C
:1000400018950000189500001895000018950000FC
:1000500018950000189500001895000018950000EC
:1000600018950000189500001895000018950000DC
:1000700018950000189500001895000018950000CC
:1000800018950000189500001895000018950000BC
:1000900018950000189500001895000018950000AC
:1000A000189500001895000018950000189500009C
:1000B000189500001895000018950000189500008C
:1000C000189500001895000018950000189500007C
:1000D000189500001895000018950000189500006C
:1000E000189500008FEF8DBFC8EDE0EC4E2E81E239
:1000F0008EBFD1E2F1E25F2EA89584B7082E877FEC
:1001000084BF88E199278093600090936000EEEFB0
:10011000FFE1A0E0B2E088278D933197E9F76624EC
:100120000E94070287E880937A0080E480937C0035
:1001300070917A00706870937A008598839880989F
:100140000C9A0A9A0E9A999A1298A19AEF93FF9391
:10015000ECE4F0E00E94B602FF91EF91A198EFE28B
:1001600083E00FEF0E94FA04A1E0B2E08D939C932C
:100170000E94EC01ECE6FBE00E9435050E94E501DF
:1001800083ED11E00E94FB01A8EAB1E2E1E0F2E0B8
:100190000E9451050E94DD01A1E0B2E00D911C9189
:1001A0000B3450E0150781E010F009F080E08F93E8
:1001B000A1E0B2E00D911C910C3350E0150781E0F5
:1001C00008F480E09F918923882311F40C94EA00BD
:1001D0000E940801E1E0F0E00E94FE010C94A500FD
:1001E0000E94EC01EAE7FBE00E9435050E94E50170
:1001F0008FEB11E00E94FB01ECE8FBE00E9435056B
:100200000E94E501E2E0F0E00E94FE010C94A500EE
:100210000E94EC01E4E9FBE00E9435050E94E50143
:100220008FEB11E00E94FB01E4EAFBE00E94350540
:100230000E94E501169800E010E020E030E0ADE01B
:10024000B2E00D931D932D933C9340E85CE060E099
:1002500070E0ADE0B2E00D911D912D913C910E94B6
:100260003E051CF011F00C944501149A81E090E0D9
:100270000E94C202149881E090E00E94C202ADE0A8
:10028000B2E00E94D0010C94250100917C00007E18
:1002900010917B00177F056010937B0000937C001A
:1002A0000E94B803A1E1B2E08D939C9300917C0081
:1002B000007E10917B00177F006010937B000093FD
:1002C0007C000E94B803A3E0B2E08D939C93E0E62B
:1002D000FBE00E9435050E94D104E3E0F2E0D190FA
:1002E000E080FF2400270E94F3030E949604EDE0C3
:1002F000F0E0A5E0B2E00E94AA05E4E6FBE00E947F
:1003000035050E94D104E5E0F2E00E94CF030E948F
:100310004004EDE0F0E0A9E0B2E00E94AA050E94EE
:10032000EC0183ED11E00E94FB01A8EAB1E2E9E0F3
:10033000F2E00E94CF030E94D1020E94DD0183ED12
:100340001AE00E94FB01A8EAB1E2E1E1F2E00E94BA
:1003500051050E94DD01E9E0F2E00E94CF03E8E6EA
:10036000FBE00E9435050E94D1040E94DA0481E07E
:1003700008F480E08F93A1E1B2E00D911C910C3262
:1003800051E0150781E008F480E09F9189238823DC
:1003900011F40C94CD010C94F0000E940801089512
:1003A0000D911D912D913C910F5F1F4F2F4F3F4F8E
:1003B0003C932E931E930E930895A8EAB1E28D917B
:1003C000882311F09CD0FBCF08950E94C704802D94
:1003D00011F095D0FACF089581E09BD015D080E838
:1003E00098C08FE7213039F08FEB223021F083E97C
:1003F000233009F083ED810F0C94890288EE93E09D
:10040000C1D03197D9F7089583E09927BBC08AEF0F
:1004100090E00E94C2020F9A0D9A0B9A099A70916D
:10042000010171607093010170910101726070931C
:100430000101709102017D7F7093020185E090E0DF
:100440000E94C202709102017E7F70930201179890
:100450001598139A119A70910201716070930201BC
:10046000EF93FF93ECE8F1E00E94B602FF91EF9169
:10047000709102017E7F7093020181D07091020120
:10048000716070930201EF93FF93ECE8F1E00E943A
:10049000B602FF91EF91709102017E7F709302018D
:1004A0006ED070910201716070930201EF93FF931F
:1004B000ECE8F1E00E94B602FF91EF917091020129
:1004C0007E7F709302015BD0119870910201716080
:1004D00070930201EF93FF93ECE8F1E00E94B60203
:1004E000FF91EF91709102017E7F7093020147D0DE
:1004F00088E20FD08EE00DD086E00BD00895709189
:100500000201726070930201829509D008D037D041
:100510000895709102017D7F70930201F5CF85955A
:1005200010F4119A01C01198859510F4139A01C026
:100530001398859510F4159A01C01598859510F4B7
:10054000179A01C0179870910201716070930201AF
:10055000EF93FF93ECE8F1E00E94B602FF91EF9178
:10056000709102017E7F7093020108953197F1F737
:100570000895689462F80895E89462F8089581E017
:1005800090E000C0EF93FF93EE27E82BE92B31F0CA
:10059000E0EAFFE03197F1F70197D1F7FF91EF9192
:1005A00008958DE207FD8D938F2D881F802F881F62
:1005B0008F57082F6894F7F8802F87FF17C0809512
:1005C0008395082F80E38D938EE28D93802F815247
:1005D00038F080E38D9399279C930E942A05089513
:1005E00044270A95802F09F198D01FC0805230F01F
:1005F0009EE49D9381E48D939D93EDCF4427DF92FC
:10060000EF92FF920F938FE1801B11F0082F85D09E
:100610008BD09EE29D930F91FF90EF90DF90442747
:100620000395003209F4D5CF2DD03F93EAEBF6E0E5
:100630000E94350538E12F2D1E2D0D2DFF24EE24AF
:10064000DD244427000F111F221FA8F42F923F9290
:100650000E94C704102C0E94C704202C0E94C704CB
:10066000302C0E94C7043197410DD21CE31CF01CB2
:100670003F902F9001C0339631963A9519F73F91EC
:1006800007D0ABCFDD0CEE1CFF1C0A95D9F70895FF
:10069000002719E058D08F93802B11F0039501C0EB
:1006A0008F911A95B9F7802F882309F492CF8F91F3
:1006B000805D8D930A95D9F78ECF0065CD1D80B2F0
:1006C000E60E40597307A0ACB90350D6DC01286B85
:1006D000EE0094357700CA9A3B0065CD1D00B2E666
:1006E0000E0059730700ACB90300D6DC01006BEEB5
:1006F0000000357700009A3B0000CD1D0000E60E9B
:10070000000073070000B9030000DC010000EE00E8
:100710000000770000003B000000F694E794D794B7
:1007200047950A95D1F7089500270DD08F9303952B
:100730008F2D8E298D29842BC1F78F91805D8D930C
:100740000A95D9F748CF1F930F93002710E2440F63
:10075000DD1CEE1CFF1C001F802F9AE0890B10F09F
:10076000082F43951A9599F7802F0F911F9108959F
:1007700070917A00706470937A0000907A0006FCA1
:10078000FCCF70917A00706470937A0000907A00C8
:1007900006FCFCCF80917800909179000895D1906B
:1007A000E190F19001910895219131914191519100
:1007B0000895102F90E8FF0C001F0927990FF79458
:1007C0001078652F90E8440F551F5927990F4795CA
:1007D000607800380895FF0C90E89027110F9795E6
:1007E000F794092F0895102FBD2CDE2CEF2CF02E3E
:1007F00011234AF4B094D094E094F0949FEFB91A86
:10080000D90AE90AF90A0EE1FF2039F4FE2CED2C91
:10081000DB2CBB240850C2F767C032F00A95BB0C32
:10082000DD1CEE1CFF1CF9CF0E941704D4CFB7FECD
:10083000089590E8B91611F4D0FE08959FEFD91AE3
:10084000E90AF90A09F403950895502F2D2D3E2D3C
:100850004F2D612F08952DEC3CEC4CEC5DE36627A9
:100860000FC09DDFF2DFDD24EE2490E8F92E0FE3C8
:1008700007C09ADF05C02227332740E251E46627EC
:10088000552351F1002381F194DF71F116270058AF
:1008900050580894050B18F407FD03C025C007FD48
:1008A00023C0469537952795F694E794D79422D0A0
:1008B000FF202AF0DD0CEE1CFF1C015073F09D2D73
:1008C000969548F0DD203AF4EE202AF491E0D90E16
:1008D0009927E91EF91E7FCF07C09FE7092FF92A44
:1008E0009FEFD92EE92E0895DD24EE24FF24002762
:1008F000112708959F929924AA24BB2488E1D21637
:10090000E306F40628F0D21AE30AF40A089401C0B8
:100910008894991CAA1CBB1CDD0CEE1CFF1C8A953C
:1009200071F7D92CEA2CFB2C9F90089542DFE1F25D
:100930005038D1F21627005850580894051F12F469
:1009400018F4CBCF08F0D0CF0BD0FF202AF0BB0C8F
:10095000DD1CEE1CFF1C3FCF0F5F0BF4BECF3BCF67
:100960009F929924AA24BB24992788E1990CAA1C58
:10097000BB1CDD1CEE1CFF1C30F4920EA31EB41E2B
:10098000D91EE91EF91E8A9589F79F900895D8957A
:10099000319628F48F938BB783958BBF8F9100206E
:1009A0000895F5DF202DF3DF302DF1DF402DEFDF4F
:1009B000502D089507FB00680EF40F7757FB506821
:1009C0000EF45F7707FD02C057FF05C0D216E3069D
:1009D000F406050708952D153E054F0550070895A7
:1009E00091E0882321F08894991F8A95E9F7892F4F
:1009F000909508950E94BC02FF27AA27BB270E945A
:100A0000F0040823018009220182008008220026C8
:100A100019F41196D1F0F9CFAA27BB27008008223C
:100A2000002619F0119689F0F9CFAA27BB27EF937A
:100A3000FF93E0E2F0E00E94B602FF91EF910080A8
:100A40000822002621F4119691F70E94B9028A2FFC
:100A50009B2F08950F9200240BBE0F9008950F93C3
:100A600001E00BBF0F91889408950F930027F9CFF1
:100A70000F9302E0F6CF0F9303E0F3CF04171507AF
:100A8000260737070895000F111F221F331F0895EF
:100A900000951095209530950F5F1F4F2F4F3F4FBA
:100AA0000895019110810EC0019111912191308121
:100AB0000BC00191108117FF05C03FEF2FEF04C05D
:100AC000008111272227332737FF03C0E1DF8DE2A2
:100AD0008D93CF93DF93CF92DF92EF92AA24BB2422
:100AE000CC24DD24EE2440E2CAE0DD2755E093E388
:100AF0008881890F87FD9F7083FD907F891B899373
:100B00005A95A9F7C0DFAA1CBB1CCC1CDD1CEE1C2F
:100B10004A9551F7E894EFE0FF2782910ED0EB3031
:100B2000E0F71EF068948A2D0CD088278D93EF9003
:100B3000DF90CF90DF91CF910895982F829501D0CB
:100B4000892F8F70805D26F0803309F408956894B2
:100B50008D93089594E081918D939A95E1F708958E
:100B60000000A04000002041000004424D4F544FBF
:100B700052204150414741444F0054454D50455249
:100B8000415455524120414C5441000050454C497C
:100B900047524F004D4F544F5220454E43454E440F
:100BA00049444F0044495354414E43494120313058
:040BB000636D000071
:00000001FF
