:100000000C94720018950000189500000C94640779
:10001000189500001895000018950000189500002C
:10002000189500001895000018950000189500001C
:10003000189500001895000018950000189500000C
:1000400018950000189500001895000018950000FC
:1000500018950000189500001895000018950000EC
:1000600018950000189500001895000018950000DC
:1000700018950000189500001895000018950000CC
:1000800018950000189500001895000018950000BC
:1000900018950000189500001895000018950000AC
:1000A000189500001895000018950000189500009C
:1000B000189500001895000018950000189500008C
:1000C000189500001895000018950000189500007C
:1000D000189500001895000018950000189500006C
:1000E000189500008FEF8DBFC8EDE0EC4E2E81E239
:1000F0008EBFD1E2F1E25F2EA89584B7082E877FEC
:1001000084BF88E199278093600090936000EEEFB0
:10011000FFE1A0E0B2E088278D933197E9F782E80C
:100120008093C40086E08093C50088E18093C1007D
:1001300066240E94E507EA9A0E9A0C9A0A9A6D9A2A
:1001400070910101786070930101889A89983E98B6
:100150003C983A98989880E08093070280E08093DA
:10016000080280E0809309020E94CA078FE715E029
:100170000E94D907ECEDF2E10E94F9080E94C30742
:100180008FEB17E00E94D907E8EEF2E10E94F90830
:100190000E94C30783E911E00E94D907EEEEF2E165
:1001A0000E94F9080E94C30783ED12E00E94D9075C
:1001B000E2E0F3E10E94F9080E94C30780E0809327
:1001C0000202E2E0F0E00E94DC07AAE0B2E06894FC
:1001D0004C9106B1882706FD816004FD826084177A
:1001E00011F4B6F310C08C934295840F823049F01D
:1001F000803139F0833229F0813319F00E946E0189
:1002000002C00E945B0100910202013081E009F00E
:1002100080E08F93A6E2B0E00C9102FB81E00EF04B
:1002200080E09F918923882311F40C9419010C9488
:10023000810100910202023081E009F080E08F9399
:10024000A6E2B0E00C9102FB81E00EF080E09F910D
:100250008923882311F40C942F010C94FC03909BA8
:100260000C9434010C9481010E949D07A3E1B2E03B
:100270008C9300911302013411F00C9441010C9401
:10028000810100911302033411F00C9449010C9484
:10029000FC0300911302003511F00C9451010E94EF
:1002A000640700911302003011F00C9459010C9472
:1002B00081010C94E5008CE00E9467080E94CA0747
:1002C0008FEB14E00E94D907E6E1F3E10E94F90800
:1002D0000E94C30781E08093020208958CE00E948F
:1002E00067080E94CA078FEB14E00E94D907E6E175
:1002F000F3E10E94F9080E94C30782E080930202A2
:1003000008950E94E10580E0809302020E94CA07DE
:100310008FE711E00E94D907EEEEF2E10E94F908A2
:100320000E94C3078FEB11E00E94D907E4E2F3E1DA
:100330000E94F9080E94C307A8EAB1E2E7E0F2E0F0
:100340000E9424090E94BB0783E911E00E94D9079B
:10035000A8EAB1E2E9E0F2E00E9424090E94BB07AA
:10036000E4E3F3E10E94F9080E94C307A8EAB1E2BE
:10037000E8E0F2E00E9424090E94BB07E0E4F3E118
:100380000E94F9080E94C30783ED11E00E94D9077B
:10039000EAE4F3E10E94F9080E94C307E0E6F3E112
:1003A0000E94F9080E94AA070E94B107E3E0F0E06A
:1003B0000E94DC070E943407E1E0F0E00E94DC07C5
:1003C0000E949D07A3E1B2E08C9381E4482F009145
:1003D0001302041711F00C94EF010C94810180E5D5
:1003E000482F00911302041711F00C94F9010E9498
:1003F00064075F984398E6E281E00FEF0E94C3082C
:10040000ABE0B2E08D939C9388EC90E00E94A00852
:100410005F98439AE6E281E00FEF0E94C308AFE0E5
:10042000B2E08D939C9388EC90E00E94A0085F9AC4
:10043000439AE6E281E00FEF0E94C308ADE0B2E02C
:100440008D939C9388EC90E00E94A0085F9A43985B
:10045000E6E281E00FEF0E94C308A1E1B2E08D93D4
:100460009C9388EC90E00E94A0080E94CA078FE746
:1004700011E00E94D907EEEEF2E10E94F9080E9415
:10048000C3078FEB11E00E94D907E4E2F3E10E9479
:10049000F9080E94C307A8EAB1E2E7E0F2E00E948F
:1004A00024090E94BB0783E911E00E94D907A8EA4A
:1004B000B1E2E9E0F2E00E9424090E94BB07E4E314
:1004C000F3E10E94F9080E94C307A8EAB1E2E8E05C
:1004D000F2E00E9424090E94BB07E0E4F3E10E94DD
:1004E000F9080E94C30783ED11E00E94D907E6E6F0
:1004F000F3E10E94F9080E94C30700910902053048
:1005000081E009F080E08F9300910802053081E0DE
:1005100009F080E09F91892B882311F40C949202BA
:100520000C949503ABE0B2E00D911C91013050E0CA
:10053000150781E009F080E08F93AFE0B2E00D9104
:100540001C91013050E0150781E009F080E09F9197
:1005500089238F93ADE0B2E00D911C91013050E002
:10056000150781E009F080E09F9189238F93A1E135
:10057000B2E00D911C91013050E0150781E009F0C7
:1005800080E09F918923882311F40C94C9020E9472
:100590001504ABE0B2E00D911C91033050E015075B
:1005A00081E009F080E08F93AFE0B2E00D911C9103
:1005B000033050E0150781E009F080E09F91892326
:1005C0008F93ADE0B2E00D911C91033050E0150720
:1005D00081E009F080E09F9189238F93A1E1B2E04F
:1005E0000D911C91033050E0150781E009F080E087
:1005F0009F918923882311F40C9400030E948E0498
:10060000ABE0B2E00D911C91023050E0150781E0A3
:1006100009F080E08F93AFE0B2E00D911C910230C1
:1006200050E0150781E009F080E09F9189238F93C6
:10063000ADE0B2E00D911C91023050E0150781E071
:1006400009F080E09F9189238F93A1E1B2E00D91A1
:100650001C91023050E0150781E009F080E09F9185
:100660008923882311F40C9437030E948E0484E6B6
:1006700090E00E94A00800910202013011F00C9459
:10068000E0010E94CA078FE711E00E94D907EEEE51
:10069000F2E10E94F9080E94C3078FEB11E00E946B
:1006A000D907E4E2F3E10E94F9080E94C307A8EA2F
:1006B000B1E2E7E0F2E00E9424090E94BB0783E96F
:1006C00011E00E94D907A8EAB1E2E9E0F2E00E9455
:1006D00024090E94BB07E4E3F3E10E94F9080E94A9
:1006E000C307A8EAB1E2E8E0F2E00E9424090E9410
:1006F000BB07E0E4F3E10E94F9080E94C30783ED21
:1007000011E00E94D907ECE7F3E10E94F9080E948A
:10071000C307E0E9F3E10E94F9080E94AA070E94DA
:10072000B1070E9404070C9481010E94CA078FE759
:1007300011E00E94D907EEEEF2E10E94F9080E9452
:10074000C3078FEB11E00E94D907E4E2F3E10E94B6
:10075000F9080E94C307A8EAB1E2E7E0F2E00E94CC
:1007600024090E94BB0783E911E00E94D907A8EA87
:10077000B1E2E9E0F2E00E9424090E94BB07E4E351
:10078000F3E10E94F9080E94C307A8EAB1E2E8E099
:10079000F2E00E9424090E94BB07E0E4F3E10E941A
:1007A000F9080E94C30783ED11E00E94D907E8E928
:1007B000F3E10E94F9080E94C3070E949D07A3E18C
:1007C000B2E08C9383E4482F00911302041711F0D8
:1007D0000C94EC030C94FC0380E5482F0091130269
:1007E000041711F00C94F6030E94640784E690E06D
:1007F0000E94A0080C94950300910902053011F0A5
:100800000C94050480E080930902009108020530F1
:1008100011F00C940E0480E080930802A7E0B2E08F
:100820008C9185508C930C94E0010E94CA078FE74D
:1008300011E00E94D907EEEEF2E10E94F9080E9451
:10084000C3078FEB11E00E94D907E4E2F3E10E94B5
:10085000F9080E94C307A8EAB1E2E7E0F2E00E94CB
:1008600024090E94BB0783E911E00E94D907A8EA86
:10087000B1E2E9E0F2E00E9424090E94BB07E4E350
:10088000F3E10E94F9080E94C307A8EAB1E2E8E098
:10089000F2E00E9424090E94BB07E0E4F3E10E9419
:1008A000F9080E94C30783ED11E00E94D907ECEA22
:1008B000F3E10E94F9080E94C307E1E0F0E00E9422
:1008C000DC070E94E1050E944E06E1E0F0E00E9494
:1008D000DC070E94A906E3E0F0E00E94DC070E942A
:1008E0007405E3E0F0E00E94DC0781E080930202FF
:1008F000EEEBF3E10E94F9080E94AA070E94B107FB
:10090000A9E0B2E08C918F5F8C9300910902409135
:100910000802040FA7E0B2E00C9308950E94CA07F2
:100920008FE711E00E94D907EEEEF2E10E94F9088C
:100930000E94C3078FEB11E00E94D907E4E2F3E1C4
:100940000E94F9080E94C307A8EAB1E2E7E0F2E0DA
:100950000E9424090E94BB0783E911E00E94D90785
:10096000A8EAB1E2E9E0F2E00E9424090E94BB0794
:10097000E4E3F3E10E94F9080E94C307A8EAB1E2A8
:10098000E8E0F2E00E9424090E94BB07E0E4F3E102
:100990000E94F9080E94C30783ED11E00E94D90765
:1009A000E4ECF3E10E94F9080E94C307E1E0F0E003
:1009B0000E94DC070E944E06E1E0F0E00E94DC07A6
:1009C0000E94A9060E94E105E3E0F0E00E94DC0736
:1009D0000E940705E3E0F0E00E94DC0781E08093DD
:1009E0000202E6EDF3E10E94F9080E94AA070E94C4
:1009F000B107A8E0B2E08C918F5F8C93009109025F
:100A000040910802040FA7E0B2E00C9308950E9401
:100A1000CA078FE711E00E94D907EEEEF2E10E94CB
:100A2000F9080E94C3078FEB11E00E94D907E4E2A6
:100A3000F3E10E94F9080E94C307A8EAB1E2E7E0E7
:100A4000F2E00E9424090E94BB0783E911E00E94A2
:100A5000D907A8EAB1E2E9E0F2E00E9424090E9485
:100A6000BB07E4E3F3E10E94F9080E94C307A8EA88
:100A7000B1E2E8E0F2E00E9424090E94BB07E0E452
:100A8000F3E10E94F9080E94C30783ED11E00E9480
:100A9000D907ECEDF3E10E94F9080E94C30781E059
:100AA0008093020200910202053018F011F00C94BC
:100AB00073057091020178607093020180E090E00C
:100AC0000E94A00870910201777F7093020186E175
:100AD00090E00E94A008A2E0B2E08C918F5F8C931E
:100AE00010F40C94520508950E94CA078FE711E094
:100AF0000E94D907EEEEF2E10E94F9080E94C307B6
:100B00008FEB11E00E94D907E4E2F3E10E94F908BB
:100B10000E94C307A8EAB1E2E7E0F2E00E942409DC
:100B20000E94BB0783E911E00E94D907A8EAB1E25D
:100B3000E9E0F2E00E9424090E94BB07E4E3F3E14C
:100B40000E94F9080E94C307A8EAB1E2E8E0F2E0D7
:100B50000E9424090E94BB07E0E4F3E10E94F90827
:100B60000E94C30783ED11E00E94D907E0EFF3E193
:100B70000E94F9080E94C30781E08093020200915D
:100B800002020A3018F011F00C94E0057091020195
:100B900078607093020180E090E00E94A00870915C
:100BA0000201777F7093020186E190E00E94A00825
:100BB000A2E0B2E08C918F5F8C9310F40C94BF058F
:100BC00008950E94CA078FE711E00E94D907EEEE50
:100BD000F2E10E94F9080E94C3078FEB11E00E9426
:100BE000D907E4E2F3E10E94F9080E94C307A8EAEA
:100BF000B1E2E7E0F2E00E9424090E94BB0783E92A
:100C000011E00E94D907A8EAB1E2E9E0F2E00E940F
:100C100024090E94BB07E4E3F3E10E94F9080E9463
:100C2000C307A8EAB1E2E8E0F2E00E9424090E94CA
:100C3000BB07E0E4F3E10E94F9080E94C30783EDDB
:100C400011E00E94D907E6E0F4E10E94F9080E9451
:100C5000C30781E08093020200910202033018F082
:100C600011F00C944D0670910201786070930201AE
:100C700081E090E00E94A00870910201777F70935C
:100C8000020186E190E00E94A008A2E0B2E08C910F
:100C90008F5F8C9310F40C942C0608950E94CA0761
:100CA0008FE711E00E94D907EEEEF2E10E94F90809
:100CB0000E94C3078FEB11E00E94D907E4E2F3E141
:100CC0000E94F9080E94C307A8EAB1E2E7E0F2E057
:100CD0000E9424090E94BB0783E911E00E94D90702
:100CE000A8EAB1E2E9E0F2E00E9424090E94BB0711
:100CF000E4E3F3E10E94F9080E94C307A8EAB1E225
:100D0000E8E0F2E00E9424090E94BB07E0E4F3E17E
:100D10000E94F9080E94C30783ED11E00E94D907E1
:100D2000ECE1F4E10E94F9080E94C307E0E3F4E17A
:100D30000E94F9080E94AA070E94B107759A81E0F3
:100D400090E00E94A008759886E190E00E94A008BB
:100D500008950E94CA078FE711E00E94D907EEEEBE
:100D6000F2E10E94F9080E94C3078FEB11E00E9494
:100D7000D907E4E2F3E10E94F9080E94C307A8EA58
:100D8000B1E2E7E0F2E00E9424090E94BB0783E998
:100D900011E00E94D907A8EAB1E2E9E0F2E00E947E
:100DA00024090E94BB07E4E3F3E10E94F9080E94D2
:100DB000C307A8EAB1E2E8E0F2E00E9424090E9439
:100DC000BB07E0E4F3E10E94F9080E94C30783ED4A
:100DD00011E00E94D907E6E3F4E10E94F9080E94BD
:100DE000C307E0E6F3E10E94F9080E94AA070E9407
:100DF000B107759A82E090E00E94A008759886E19C
:100E000090E00E94A00808951298169800E010E063
:100E100020E030E0A3E0B2E00D931D932D933C93CE
:100E200040E85CE060E070E0A3E0B2E00D911D916D
:100E30002D913C910E9402091CF011F00C94300796
:100E4000149A81E090E00E94A008149881E090E05C
:100E50000E94A008A3E0B2E00E9490070C94100743
:100E600081E08093140208951298169A00E010E031
:100E700020E030E0A3E0B2E00D931D932D933C936E
:100E800040E85CE060E070E0A3E0B2E00D911D910D
:100E90002D913C910E9402091CF011F00C94600706
:100EA000149A81E090E00E94A008149881E090E0FC
:100EB0000E94A008A3E0B2E00E9490070C944007B3
:100EC00082E080931402089500910102013018F02D
:100ED00011F00C946D070C9471070C948F070C940F
:100EE00073070E9473078CE00E9467080E94CA077C
:100EF000EAE4F4E10E94F9080E94C307409A82E301
:100F000090E00E94A008409882E390E00E94A00830
:100F1000409A82E390E00E94A008409808950895C6
:100F20000D911D912D913C910F5F1F4F2F4F3F4F02
:100F30003C932E931E930E93089588270090C00033
:100F400007FE089500C08091C00087FFFCCF80910C
:100F5000C60008950E94AF08802D11F005D0FACF89
:100F600008958DE001D08AE00090C00005FEFCCF1E
:100F70008093C6000895A8EAB1E28D91882311F00C
:100F80009CD0FBCF08950E94AF08802D11F095D022
:100F9000FACF089581E09BD015D080E898C08FE704
:100FA000213039F08FEB223021F083E9233009F032
:100FB00083ED810F0C94670888EE93E0C1D03197E0
:100FC000D9F7089583E09927BBC08AEF90E00E948B
:100FD000A0080F9A0D9A0B9A099A709101017160FD
:100FE0007093010170910101726070930101709121
:100FF00002017D7F7093020185E090E00E94A008CD
:10100000709102017E7F7093020117981598139AD0
:10101000119A70910201716070930201EF93FF9336
:10102000ECE8F1E00E949408FF91EF9170910201C9
:101030007E7F7093020181D0709102017160709384
:101040000201EF93FF93ECE8F1E00E949408FF9116
:10105000EF91709102017E7F709302016ED07091CA
:101060000201716070930201EF93FF93ECE8F1E0ED
:101070000E949408FF91EF91709102017E7F70931E
:1010800002015BD0119870910201716070930201AE
:10109000EF93FF93ECE8F1E00E949408FF91EF9149
:1010A000709102017E7F7093020147D088E20FD0D9
:1010B0008EE00DD086E00BD0089570910201726031
:1010C00070930201829509D008D037D008957091AD
:1010D00002017D7F70930201F5CF859510F4119A7E
:1010E00001C01198859510F4139A01C01398859545
:1010F00010F4159A01C01598859510F4179A01C03F
:10110000179870910201716070930201EF93FF9341
:10111000ECE8F1E00E949408FF91EF9170910201D8
:101120007E7F7093020108953197F1F708956894D6
:1011300062F80895E89462F8089581E090E000C0B4
:10114000EF93FF93EE27E82BE92B31F0E0EAFFE085
:101150003197F1F70197D1F7FF91EF910895D89565
:10116000319628F48F938BB783958BBF8F91002096
:10117000089591E0882321F08894991F8A95E9F7D2
:10118000892F909508950E949A08FF27AA27BB27C8
:101190000E94B908082301800922018200800822E8
:1011A000002619F41196D1F0F9CFAA27BB270080A9
:1011B0000822002619F0119689F0F9CFAA27BB273B
:1011C000EF93FF93E0E2F0E00E949408FF91EF912B
:1011D00000800822002621F4119691F70E949708BA
:1011E0008A2F9B2F08950F9301E00BBF0F918894D6
:1011F00008950F930027F9CF0F9302E0F6CF0F93D6
:1012000003E0F3CF04171507260737070895000FEB
:10121000111F221F331F08950095109520953095BA
:101220000F5F1F4F2F4F3F4F0895019110810EC048
:1012300001911191219130810BC00191108117FF13
:1012400005C03FEF2FEF04C000811127222733276D
:1012500037FF03C0E1DF8DE28D93CF93DF93CF9211
:10126000DF92EF92AA24BB24CC24DD24EE2440E2BA
:10127000CAE0DD2755E093E38881890F87FD9F70E1
:1012800083FD907F891B89935A95A9F7C0DFAA1C1B
:10129000BB1CCC1CDD1CEE1C4A9551F7E894EFE01A
:1012A000FF2782910ED0EB30E0F71EF068948A2D74
:1012B0000CD088278D93EF90DF90CF90DF91CF9166
:1012C0000895982F829501D0892F8F70805D26F028
:1012D000803309F4089568948D9308954249454EEA
:1012E00056454E49444F530055544E430000434C1D
:1012F00041532E204420505A53205820434F4C4FE6
:101300005200434F4E54524F4C204155544F4D4183
:101310005449434F00003E3E202053544152542034
:101320003C3C0000505A5320544F54414C455320EC
:101330002020000020414D4152494C4C4F200000DC
:10134000204E4152414E4A410000454C45564144D1
:101350004F522053554249454E444F2E2E2E0000E9
:10136000434352434A004C4543545552412044455F
:101370002053454E534F522E2E2E0000454C4556BD
:1013800041444F522042414A414E444F2E2E2E009E
:1013900043435243434F0000414C455254412121A5
:1013A00020434F4E542046554C4C00005049455A5E
:1013B0004120414D4152494C4C412E2E00004342A8
:1013C00052434A005049455A41204E4152414E4AEB
:1013D000412E2E2E0000414352434A0053454C45B6
:1013E00043544F52204E4152414E4A412E2E2E0020
:1013F00053454C4543544F5220414D4152494C4C6A
:101400004F2E2E2E000053454C4543544F5220453D
:101410004E204553504552412E2E2E0050495354D4
:101420004F4E20414343494F4E41444F2E2E2E00F4
:10143000434343454A00504953544F4E205245546C
:10144000524149444F2E2E2E00005041524F20440D
:101450004520454D455247454E4349412121000015
:00000001FF
