:100000000C94340018950000189500001895000015
:10001000189500001895000018950000189500002C
:10002000189500001895000018950000189500001C
:10003000189500001895000018950000189500000C
:1000400018950000189500001895000018950000FC
:1000500018950000189500001895000018950000EC
:1000600018950000189500008FEF8DBFC8EDE0ECEB
:100070004E2E88E08EBFD8E0F8E05F2EA89584B7BA
:10008000082E877F84BF88E1992780936000909332
:100090006000EEEFF7E0A0E0B1E088278D933197A4
:1000A000E9F787E68093C40080E08093C50088E18B
:1000B0008093C10066240E94280287E880937A001A
:1000C00080E480937C0070917A00706870937A006D
:1000D0003898A2E1B1E0E6ECFCE00E94EE05AAE16E
:1000E000B1E0E6ECFCE00E94EE05A6E1B1E0E6EC52
:1000F000FCE00E94EE05AAE2B1E0EAECFCE00E941E
:10010000EE05AEE1B1E0E6ECFCE00E94EE05A2E215
:10011000B1E0E6ECFCE00E94EE05A6E2B1E0E6EC20
:10012000FCE00E94EE0580E090E0A0E0B1E08D935D
:100130009C93A0E0B1E00D911C91043F51E01507A4
:100140001CF011F00C94140100917C00007F006001
:1001500000937C000E94B704AEE0B1E08D939D93C4
:1001600088278D938C93EAE2F1E00E94DD04EEE0B3
:10017000F1E00E94D8040E94EA040E94C802EDE067
:10018000F0E0AAE0B1E00E945D06EEECFCE00E9427
:10019000E105EAE0F1E00E94D8040E948005EDE06C
:1001A000F0E0A2E2B1E00E945D06E2EDFCE00E9418
:1001B000E105E2E2F1E00E94D8040E942905EDE0A9
:1001C000F0E0A2E1B1E00E945D06E2E1F1E00E9410
:1001D000D804E6E1F1E00E94DD040E94B20218F0CA
:1001E00011F00C94F5000C94FB00E2E1F1E0A6E1C3
:1001F000B1E00E945D06E2E1F1E00E94D804EAE18C
:10020000F1E00E94DD040E94B20210F00C940E0195
:10021000E2E1F1E0AAE1B1E00E945D06A0E0B1E018
:100220000E94E6010C949900EAE1F1E00E94DD04ED
:10023000E6E1F1E00E94D8040E948005EDE0F0E0E4
:10024000A6E2B1E00E945D06E6EDFCE00E94E10559
:10025000E6E2F1E00E94D8040E942905EDE0F0E01A
:10026000AEE1B1E00E945D06EAEDFCE00E94E1052E
:10027000EEE1F1E00E94D8040E948005EDE0F0E09C
:10028000AEE1B1E00E945D06EEEDFCE00E94E1050A
:10029000EEE1F1E00E94D8040E94C802EDE0F0E037
:1002A000A2E0B1E00E945D06E2EEFCE00E94E10502
:1002B000E2E0F1E00E94D8040E94C802EDE0F0E024
:1002C000A6E0B1E00E945D068FE711E00E941F02E8
:1002D000E6EEFCE00E940E028FE717E00E941F028C
:1002E000ECEEFCE00E940E028FE71EE00E941F026F
:1002F000E2EFFCE00E940E028FEB11E00E941F0271
:10030000A8EAB8E0E2E0F1E0552742E00E941E03CF
:100310000E940602E6EFFCE00E940E028FEB17E05F
:100320000E941F02E8EFFCE00E940E02ECEFFCE0EE
:100330000E940E028FEB1CE00E941F02A8EAB8E0A8
:10034000E6E0F1E0552742E00E941E030E9406020B
:10035000EEEFFCE00E940E02A8EAB8E0E2E0F1E075
:10036000552742E00E941E030E94ED01E6EEFCE0EC
:100370000E94F5010E94FC01A8EAB8E0E6E0F1E085
:10038000552742E00E941E030E94ED01E0E0FDE0DF
:100390000E94F5010E94FC01A8EAB8E0EEE0F1E05D
:1003A0000E9407060E94ED01E4E0FDE00E94F501D5
:1003B0000E94FC01E2E1FDE00E94F5010E94FC01C7
:1003C000E1E0F0E00E9422020C946900ED91FC91C2
:1003D000EF5FFF4FFC93EE930895A8EAB8E08D918C
:1003E000882311F00CD0FBCF08950E94DD05802DED
:1003F00011F005D0FACF08958DE001D08AE0009089
:10040000C00005FEFCCF8093C6000895A8EAB8E0BE
:100410008D91882311F064D0FBCF08950E94DD05F3
:10042000802D11F05DD0FACF08958FE7213039F09B
:100430008FEB223021F08FE8233009F08FEC810F11
:100440000C94760288EE93E07ED03197D9F7089528
:100450008AEF90E00E94A302579A569A559A549AAE
:10046000539A529A5A9885E090E00E94A3025B98B2
:100470005F985E985D9A5C9A5B9AEF93FF93ECE8C5
:10048000F1E00E949702FF91EF915B9859D05B9A3F
:10049000EF93FF93ECE8F1E00E949702FF91EF9158
:1004A0005B984ED05B9AEF93FF93ECE8F1E00E94EB
:1004B0009702FF91EF915B9843D05C985B9AEF9322
:1004C000FF93ECE8F1E00E949702FF91EF915B98B7
:1004D00037D088E20BD08EE009D086E007D00895AF
:1004E0005A9A829505D004D02BD008955A98F9CF06
:1004F000859510F45C9A01C05C98859510F45D9A1E
:1005000001C05D98859510F45E9A01C05E9885954E
:1005100010F45F9A01C05F985B9AEF93FF93ECE849
:10052000F1E00E949702FF91EF915B980895319757
:10053000F1F70895689462F80895E89462F80895D0
:1005400081E090E000C0EF93FF93EE27E82BE92BCA
:1005500031F0E0EAFFE03197F1F70197D1F7FF9131
:10056000EF9108958F939F93D216E306F4060FB68A
:1005700080E890E8802795270FBE89070FB6892B62
:1005800087FD02C091E009260FBE9F918F910895CB
:1005900043D0A9F0503899F01627050F1BF40AF044
:1005A00085C28BC203951BD0FF202AF0BB0CDD1C3B
:1005B000EE1CFF1C02C003951BF003D003C27DC2DA
:1005C00075C2B7FE089590E8B91611F4D0FE0895EB
:1005D0009FEFD91AE90AF90A09F403950895FF92E1
:1005E000EF928D2DFF24EE24DD24BB2493E0849F25
:1005F0001001829FB00CD11CE21CF31C839FD00C15
:10060000E11C2224F21C9A9531F0BD2CDE2CEF2C3B
:10061000FF248F91ECCF0895652F90E8440F551F6C
:100620005927990F47956078102F90E8FF0C001F0D
:100630000927990FF794107800380895B9D1F4DF9D
:1006400017FF03C08DE28D931127003821F4E6E0F7
:10065000F9E00C94B1040F3741F4FF2019F4ECEFEA
:10066000F8E0F7CFE8EFF8E0F4CF4A934A934A93E3
:100670005A93BA93AA93BB270F5FE2F4BB27802F4C
:100680000A95A0D18D3E80F4E6E5F9E0A3E00E9452
:10069000E10568DFBB1FB0FF05C070970E94E10550
:1006A00077DF3C96AA9599F7E2E5F9E00E94E1052B
:1006B0006FDF1FC0093038F1033158F10A3130F4CF
:1006C00018E08BE192E9EAE0F9E02AC00A957AD1D4
:1006D000EAE4F9E0BFEFA3E00E94E10543DFBB1FBE
:1006E000B0FD05C038960E94E10552DF3C97AA95FF
:1006F00099F7B095BB0F98DF039513E08AEF99E067
:10070000F816090740F413E08BE094E0EEE1F9E01D
:1007100007C016E001C0B39583E194E2E2E1F9E09D
:100720006A81BF3F19F4BB2711276260BD836A83CA
:100730001C83A881B98160E36D93A883B9836D930D
:10074000081B0195AA24BB246A816A7F002339F023
:10075000F694E794D794B794A7940A95F7CF19E045
:1007600000270E94E105CC248FEF74E0AC14B206A0
:10077000D306E406F50630F0AC18B20AD30AE40A50
:10078000F50A21F1881F7A9531F0569547953795EE
:100790002795C794EBCF809522D041F0969508F726
:1007A000FE2CED2CDB2CBA2CAA24DBCF25D05D81CE
:1007B0003C812B8170D0277021F02BD06CD0E8F3D6
:1007C00001C03CD04CD078D0269608958894881FDC
:1007D0007A95E9F7809503D049F38827FCCF8063A9
:1007E00060FD06C0803311F0616002C0039561FDB9
:1007F0008D9360FD1A95089599278E919C9385336A
:100800008E9108F083958A3308F080E38C93C0F7CB
:100810000895732F720F61FF701B0AD012967850E3
:1008200019F050F38E9380E38E937150EAF7089598
:10083000A881B981A70F8827B81F089579E061FDC5
:10084000700FF6DF48E0431B400F8AF381F39927CE
:100850004A9569F38E91803351F79C93F9CF732FAA
:1008600061FF701B7395A881B981EA2FFB2F119747
:100870008191803361FF09F08D937A9511F48EE2B6
:100880008D9381918823C1F7772311F480E38D93B1
:1008900088278C930895889462FD0895002359F465
:1008A000A881B9818C91803331F0552321F0539583
:1008B00033506460089408955523E9F085E48D93DE
:1008C0001AF48DE28D935195652F660F560F5A30AD
:1008D00010F060E503D068E001D0DACF8FEF74E06C
:1008E000561708F0561B881F7A9511F06695F8CFB9
:1008F000809580638D9308954E414E00496E6669E0
:100900006E6974790000302E300000404B4C00209E
:10091000A107000050C3000088130000F40100008C
:1009200000320000000500008000CCCCCC0C14AEDE
:1009300047019CC42000DC460300E3530000630829
:100940000000D7000000150000001CC25367A5D4AA
:1009500068530024744915BE9A17CCBC8C2BBD3744
:1009600086350E94DD050D920020D9F7089570911B
:100970007A00706470937A0000907A0006FCFCCFD5
:1009800070917A00706470937A0000907A0006FC8F
:10099000FCCF80917800909179000895D094E094F4
:1009A000F09491E0D90E9927E91EF91E109508954B
:1009B000D190E190F190019108952191319141916F
:1009C00051910895FF0C90E89027110F9795F79497
:1009D000092F0895102FBD2CDE2CEF2CF02E1123A3
:1009E0004AF4B094D094E094F0949FEFB91AD90AE5
:1009F000E90AF90A0EE1FF2039F4FE2CED2CDB2C7C
:100A0000BB240850C2F759C032F00A95BB0CDD1C5C
:100A1000EE1CFF1CF9CF0E94E102D4CF502F2D2DE8
:100A20003E2D4F2D612F08952DEC3CEC4CEC5DE3F9
:100A300066270FC0BDDFF2DFDD24EE2490E8F92E3B
:100A40000FE307C0BADF05C02227332740E251E495
:100A50006627552351F1002381F1DEDD71F1162760
:100A6000005850580894050B18F407FD03C025C022
:100A700007FD23C0469537952795F694E794D794BC
:100A800022D0FF202AF0DD0CEE1CFF1C015073F079
:100A90009D2D969548F0DD203AF4EE202AF491E061
:100AA000D90E9927E91EF91E8DCF07C09FE7092FA0
:100AB000F92A9FEFD92EE92E0895DD24EE24FF2494
:100AC0000027112708959F929924AA24BB2488E126
:100AD000D216E306F40628F0D21AE30AF40A0894C0
:100AE00001C08894991CAA1CBB1CDD0CEE1CFF1CC9
:100AF0008A9571F7D92CEA2CFB2C9F9008955DDF25
:100B00008BDD503829F090E869270CC00AF045D0F9
:100B100059CF5FE322273327442701C04EDF7CDD16
:100B20005038B1F3003899F3902F951B8BF312F4E2
:100B300034D0FACF983118F0222733274427983041
:100B400028F0232F342F44279850F9CF992329F0E8
:100B50004695379527959A95D9F7912F962742F084
:100B600014D0B0F6F794E794D7940F5F8BF69ECF2E
:100B700010D051F008F412DFFF2052F2DD0CEE1C11
:100B8000FF1C0150CBF792CF98CFD20EE31EF41E7C
:100B90000895D21AE30AF40A0895DF92EF92FF92C1
:100BA0000F931F93D22EE32EF42E052F162F6F9145
:100BB0005F914F913F912F910895C89531960020F4
:100BC0000895FBDF202DF9DF302DF7DF402DF5DF15
:100BD000502D089591E005C092E003C094E001C05B
:100BE00098E0EBDF0D929A95E1F70895000F111F41
:100BF000221F331F089500951095209530950F5FA3
:100C00001F4F2F4F3F4F0895019110810EC001914A
:100C10001191219130810BC00191108117FF05C006
:100C20003FEF2FEF04C0008111272227332737FF22
:100C300003C0E1DF8DE28D93CF93DF93CF92DF92FC
:100C4000EF92AA24BB24CC24DD24EE2440E2CAE0A7
:100C5000DD2755E093E38881890F87FD9F7083FD31
:100C6000907F891B89935A95A9F7C0DFAA1CBB1CEA
:100C7000CC1CDD1CEE1C4A9551F7E894EFE0FF27F1
:100C800082910ED0EB30E0F71EF068948A2D0CD0E4
:100C900088278D93EF90DF90CF90DF91CF910895CB
:100CA000982F829501D0892F8F70805D26F0803338
:100CB00009F4089568948D93089594E081918D933B
:100CC0009A95E1F70895000000000A28A03B000073
:100CD0002040022B873D00000040EC51383EF4FDDF
:100CE000343F0000DC4220416D707300566F6C741D
:100CF0000000506F74004100313130005600570041
:100D0000205000002056616C6F7253656E736F72D5
:100D10000000202D202D202D20202D2D202D2020C5
:040D20002D20000082
:00000001FF
