:100000000C947200189500001895000018950000D7
:10001000189500001895000018950000189500002C
:10002000189500001895000018950000189500001C
:10003000189500001895000018950000189500000C
:1000400018950000189500001895000018950000FC
:1000500018950000189500001895000018950000EC
:1000600018950000189500001895000018950000DC
:1000700018950000189500001895000018950000CC
:1000800018950000189500001895000018950000BC
:1000900018950000189500001895000018950000AC
:1000A000189500001895000018950000189500009C
:1000B000189500001895000018950000189500008C
:1000C000189500001895000018950000189500007C
:1000D000189500001895000018950000189500006C
:1000E000189500008FEF8DBFC8EDE0EC4E2E81E239
:1000F0008EBFD1E2F1E25F2EA89584B7082E877FEC
:1001000084BF88E199278093600090936000EEEFB0
:10011000FFE1A0E0B2E088278D933197E9F787E609
:100120008093C40080E08093C50088E18093C10083
:1001300066240E94DD0380E090E0A9E0B2E08D93A8
:100140009C93809A819A579A3B9A3998259A889AD3
:1001500089980E94C2035F984398E6E281E00FEF1E
:100160000E94BB04A1E0B2E08D939C9384E690E0F2
:100170000E9498045F98439AE6E281E00FEF0E94A4
:10018000BB04A5E0B2E08D939C9384E690E00E94CE
:1001900098045F9A439AE6E281E00FEF0E94BB0465
:1001A000A3E0B2E08D939C9384E690E00E949804D3
:1001B0005F9A4398E6E281E00FEF0E94BB04A7E05C
:1001C000B2E08D939C9384E690E00E9498040E9494
:1001D000C2038FE713E00E94D103E2ECFAE00E9431
:1001E000F1040E94BB03E2EDFAE00E94F1040E94D8
:1001F000AA03A8EAB1E2E1E0F2E00E9408050E9449
:10020000A203E8EDFAE00E94F1040E94AA03A8EA22
:10021000B1E2E5E0F2E00E9408050E94A203EEEDE3
:10022000FAE00E94F1040E94AA03A8EAB1E2E3E026
:10023000F2E00E9408050E94A203E6EEFAE00E94A6
:10024000F1040E94AA03A8EAB1E2E7E0F2E00E940A
:1002500008050E94A2030E94B103A1E0B2E00D9143
:100260001C91003150E0150781E010F009F080E0AA
:100270008F93A5E0B2E00D911C91043350E0150777
:1002800081E010F009F080E09F9189238F93A3E033
:10029000B2E00D911C91023250E0150781E008F4A4
:1002A00080E09F9189238F93A7E0B2E00D911C918C
:1002B000073050E0150781E009F080E09F91892325
:1002C000882311F40C9466010E942202A1E0B2E09E
:1002D0000D911C91043650E0150781E008F480E090
:1002E0008F93A5E0B2E00D911C91043150E0150709
:1002F00081E008F480E09F9189238F93A3E0B2E02E
:100300000D911C910C3350E0150781E010F009F0BD
:1003100080E09F9189238F93A7E0B2E00D911C911B
:100320000C3050E0150781E008F480E09F918923AC
:100330008F93A7E0B2E00D911C910F3050E01507AC
:1003400081E010F009F080E09F918923882311F467
:100350000C94AC010E946D02A1E0B2E00D911C91E1
:10036000043150E0150781E010F009F080E08F9330
:10037000A5E0B2E00D911C910D3050E0150781E031
:1003800008F480E09F9189238F93A3E0B2E00D9160
:100390001C91063150E0150781E010F009F080E073
:1003A0009F9189238F93A7E0B2E00D911C910530B6
:1003B00050E0150781E009F080E09F9189238823B0
:1003C00011F40C94E5010E94B802A1E0B2E00D9195
:1003D0001C91033250E0150781E008F480E08F9310
:1003E000A5E0B2E00D911C91063550E0150781E0C3
:1003F00008F480E09F9189238F93A3E0B2E00D91F0
:100400001C91043850E0150781E008F480E09F91CA
:1004100089238F93A7E0B2E00D911C91063150E043
:10042000150781E008F480E09F918923882311F467
:100430000C941C020E94000384E690E00E94980441
:100440000C94A9000E94C2038FEB13E00E94D10319
:10045000EEEEFAE00E94F1040E94BB03E5E0F0E05A
:100460000E94D4038FE713E00E94D103E2ECFAE08C
:100470000E94F1040E94BB03E1E0F0E00E94D4037B
:10048000A9E0B2E00D911C91003050E0150711F089
:100490000C94500281E090E0A9E0B2E08D939C932F
:1004A000A9E0B2E00D911C91013050E0150711F068
:1004B0000C945C020C94A900A9E0B2E00D911C918F
:1004C000023050E0150710F40C9468020E9471038A
:1004D000E2E0F0E00E94D40308950E94C2038FEB93
:1004E00013E00E94D103ECEFFAE00E94F1040E94B5
:1004F000BB03E5E0F0E00E94D4038FE713E00E9425
:10050000D103E2ECFAE00E94F1040E94BB03E1E0B7
:10051000F0E00E94D403A9E0B2E00D911C910130FB
:1005200050E0150711F00C949B0286E090E0A9E0E2
:10053000B2E08D939C93A9E0B2E00D911C9106303E
:1005400050E0150711F00C94A7020C94A900A9E043
:10055000B2E00D911C91023050E0150710F40C949C
:10056000B3020E947103E2E0F0E00E94D403089518
:100570000E94C2038FEB13E00E94D103E8E0FBE08E
:100580000E94F1040E94BB038FE713E00E94D10395
:10059000E2ECFAE00E94F1040E94BB03E1E0F0E02B
:1005A0000E94D403A9E0B2E00D911C91063050E006
:1005B000150711F00C94E2028AE090E0A9E0B2E0A5
:1005C0008D939C93A9E0B2E00D911C910A3050E00C
:1005D000150711F00C94EE020C94A900A9E0B2E00A
:1005E0000D911C91053050E0150718F011F00C9496
:1005F000FB020E947103E2E0F0E00E94D403089540
:100600000E94C2038FEB13E00E94D103E6E1FBE0FE
:100610000E94F1040E94BB03E1E0F0E00E94D403D9
:10062000A9E0B2E00D911C910A3050E0150711F0DD
:100630000C941C030E942E03A9E0B2E00D911C91C2
:10064000093050E0150718F011F00C9429030E94AE
:100650007103E2E0F0E00E94D40308950E94C20317
:100660008FE713E00E94D103E2E2FBE00E94F10475
:100670000E94BB030E945B03E4E0F0E00E94D4030D
:100680000E9466030E94C2038FE713E00E94D10319
:10069000E2ECFAE00E94F1040E94BB03E1E0F0E02A
:1006A0000E94D40380E090E0A9E0B2E08D939C9397
:1006B0000C94A90008952D9A82E090E00E9498047D
:1006C0002D9886E190E00E94980408952D9A80E08C
:1006D00090E00E9498042D9886E190E00E94980492
:1006E00008950E94C2038FEB13E00E94D103E2E35E
:1006F000FBE00E94F1040E94BB03E1E0F0E00E94F5
:10070000D4038FE713E00E94D103E2ECFAE00E94E9
:10071000F1040E94BB0383E913E00E94D103E4E4E7
:10072000FBE00E94F1040E94BB03E1E0F0E00E94C4
:10073000D40380E090E0A9E0B2E08D939C930C9408
:10074000A9000895A8EAB1E28D91882311F00CD098
:10075000FBCF08950E94A704802D11F005D0FACF99
:1007600008958DE001D08AE00090C00005FEFCCF26
:100770008093C60008950E94A704802D11F095D0A3
:10078000FACF089581E09BD015D080E898C08FE71C
:10079000213039F08FEB223021F083E9233009F04A
:1007A00083ED810F0C945F0488EE93E0C1D0319704
:1007B000D9F7089583E09927BBC08AEF90E00E94A3
:1007C00098040F9A0D9A0B9A099A70910101716021
:1007D0007093010170910101726070930101709139
:1007E00002017D7F7093020185E090E00E949804F1
:1007F000709102017E7F7093020117981598139AE9
:10080000119A70910201716070930201EF93FF934E
:10081000ECE8F1E00E948C04FF91EF9170910201ED
:100820007E7F7093020181D070910201716070939C
:100830000201EF93FF93ECE8F1E00E948C04FF913A
:10084000EF91709102017E7F709302016ED07091E2
:100850000201716070930201EF93FF93ECE8F1E005
:100860000E948C04FF91EF91709102017E7F709342
:1008700002015BD0119870910201716070930201C6
:10088000EF93FF93ECE8F1E00E948C04FF91EF916D
:10089000709102017E7F7093020147D088E20FD0F1
:1008A0008EE00DD086E00BD0089570910201726049
:1008B00070930201829509D008D037D008957091C5
:1008C00002017D7F70930201F5CF859510F4119A96
:1008D00001C01198859510F4139A01C0139885955D
:1008E00010F4159A01C01598859510F4179A01C057
:1008F000179870910201716070930201EF93FF935A
:10090000ECE8F1E00E948C04FF91EF9170910201FC
:100910007E7F7093020108953197F1F708956894EE
:1009200062F80895E89462F8089581E090E000C0CC
:10093000EF93FF93EE27E82BE92B31F0E0EAFFE09D
:100940003197F1F70197D1F7FF91EF910895D8957D
:10095000319628F48F938BB783958BBF8F910020AE
:10096000089591E0882321F08894991F8A95E9F7EA
:10097000892F909508950E949204FF27AA27BB27EC
:100980000E94B1040823018009220182008008220C
:10099000002619F41196D1F0F9CFAA27BB270080C1
:1009A0000822002619F0119689F0F9CFAA27BB2753
:1009B000EF93FF93E0E2F0E00E948C04FF91EF914F
:1009C00000800822002621F4119691F70E948F04DE
:1009D0008A2F9B2F08950F9301E00BBF0F918894EE
:1009E00008950F930027F9CF0F9302E0F6CF0F93EE
:1009F00003E0F3CF000F111F221F331F089500954E
:100A00001095209530950F5F1F4F2F4F3F4F089542
:100A1000019110810EC001911191219130810BC083
:100A20000191108117FF05C03FEF2FEF04C0008137
:100A300011272227332737FF03C0E1DF8DE28D9393
:100A4000CF93DF93CF92DF92EF92AA24BB24CC24E2
:100A5000DD24EE2440E2CAE0DD2755E093E38881FF
:100A6000890F87FD9F7083FD907F891B89935A951D
:100A7000A9F7C0DFAA1CBB1CCC1CDD1CEE1C4A95D0
:100A800051F7E894EFE0FF2782910ED0EB30E0F7CA
:100A90001EF068948A2D0CD088278D93EF90DF90FC
:100AA000CF90DF91CF910895982F829501D0892F13
:100AB0008F70805D26F0803309F4089568948D93DB
:100AC00008955055455254412043455252414441A6
:100AD0000000726F6A6F2000617A756C2000766585
:100AE000726465200000626C616E636F2000434F8A
:100AF0004C4F52204E4152414E4A4100434F4C4FC1
:100B00005220415A554C0000434F4C4F5220424C0A
:100B1000414E434F0000434F4C4F5220524F4A4FDB
:100B200000005055455254412041424945525441DC
:100B30000000434F4C4F5220494E434F52524543C1
:100B4000544F0000494E54454E5441204E55455691
:080B5000414D454E54450000E3
:00000001FF
